:020000040800F2
:10000000304E00201D360008953500089735000851
:10001000993500089B3500089D3500080000000058
:100020000000000000000000000000009112000825
:100030009F3500080000000035120008130E00086C
:100040004136000845360008493600084D3600089C
:100050005136000855360008593600085D3600084C
:100060006136000865360008693600086D360008FC
:100070007136000875360008793600087D360008AC
:100080008136000885360008893600088D3600085C
:100090009136000895360008993600089D3600080C
:1000A000A1360008A1350008A5360008A9360008C9
:1000B000AD360008B1360008B5360008B93600087C
:1000C000BD360008C1360008C5360008C93600082C
:1000D000CD360008D1360008D5360008D9360008DC
:1000E000AD350008DD360008E1360008E5360008C9
:1000F000E9360008ED360008F1360008F53600084C
:10010000F9360008FD3600080137000805370008F9
:10011000093700080D3700081137000815370008A7
:10012000193700081D370008213700082537000857
:10013000293700082D370008313700083537000807
:10014000393700083D3700084137000845370008B7
:10015000493700084D370008513700085537000867
:10016000593700085D370008613700086537000817
:10017000693700086D3700087137000875370008C7
:10018000793700087D370008813700088537000877
:10019000893700088D370008913700089537000827
:1001A000993700089D370008A1370008A5370008D7
:1001B000A9370008AD370008B1370008B537000887
:1001C000B9370008BD370008F0B585B050260B9D43
:1001D00015B900F022F8FEE70C9C14B900F01DF8E8
:1001E000FEE75C270097009F5C2F02D000F015F817
:1001F000FEE7009E25630225002784F8595004ADD0
:100200000397029401950A9E009600F03DF820465F
:1002100000F080F8049805B0F0BD72B686F311883E
:10022000BFF34F8FBFF36F8F62B670472DE9F8436E
:100230000646174684B088469946B80000F0E6FBAB
:1002400005001CD05C2000F0E1FB040014D000206D
:10025000256384F859000D9A03900C9801924B463F
:1002600000903A4602944146304600F00DF8204690
:1002700000F050F8012004E0284600F053FC4FF055
:10028000FF3005B0BDE8F0832DE9F0470A9F8146B5
:100290000C4615469A46A522386BA90000F094FC3E
:1002A0003A6B02EB850107F13405081FC0084FEADD
:1002B000C00808F0070054B10021625C6A54605C19
:1002C00010B1491C1029F8D30020E87300E0287011
:1002D000089E099C372E88BF3726FE62AE61C6F1A4
:1002E0003806E861381D00F099FC07F1180000F0AD
:1002F00095FC3F610020BE6152467F6249462862FC
:1003000087F85800404600F0E3FC386004B12760ED
:10031000BDE8F0872DE9F04100F054F8E86C1426B0
:10032000DFF8BC85401CE864A86A28BBAC62E96CB5
:10033000012929D1002706FB07F07F1C404400F06B
:1003400060FC382FF7D305F1740005F1880700F041
:1003500058FC384600F055FC284600F052FC05F1E8
:10036000140000F04EFC05F1380000F04AFC05F1E5
:100370007401E9622F6307E0A86D28B9E16AA86AF1
:10038000C26A914228BFAC62A86E401CA866606435
:10039000E06A696D814238BF68654643211D08EBFC
:1003A000060000F03EFC00F021FDA86D40B1A96AF6
:1003B000E26AC86A904203D200F012F800F007F82F
:1003C000BDE8F0810446DFF8B45500F0F2BCBFF39D
:1003D0004F8FBFF36F8F704704F1180000F047BCD8
:1003E0004FF08051DFF898351960704772B6502091
:1003F00080F31188BFF34F8FBFF36F8F62B67047E2
:1004000080B586B00020059003AA049004A905A831
:1004100000F050FD059A049802920021039A019081
:10042000009100230FF2DC510FF24930FFF7CCFEB0
:1004300088B100F055FD502101280ED100F013F8CD
:10044000DFF8AC054FF0FF31C16601228265002361
:10045000036500F061FC07B000BD10F1010FFAD197
:1004600000F001F8FEE772B681F31188BFF34F8FF9
:10047000BFF36F8F62B67047DFF87405016F491CD8
:100480000167704770B5DFF8F4640024306F002511
:1004900010B900F0A0F8FEE700F08BFC306F401EB2
:1004A0003067316F002936D1F06CD0B933E0F16894
:1004B000CC68FFF791FF00F0E5F9E06A716DDFF8B5
:1004C0003425814238BF70651423211D58431044E0
:1004D00000F0A7FBE06AB16ACA6A904224BF012318
:1004E000336630680028E2D10CB100F07DF9F46D7C
:1004F0003CB100F015F808B101203066641EF8D157
:10050000F565306E38B14FF08051DFF8EC240125ED
:100510001160FFF75CFF2CE2DFF8D404006D704738
:100520002DE9F843DFF854740026386F00284BD1CA
:100530003C6D641C3C650ED1F86A006810B100F097
:100540004AF8FEE7F86A396BF9623863786E401C46
:10055000786600F049F9F86E4FF01408DFF89494CB
:10056000844227D319E0281D00F081FBA86A18B146
:1005700005F1180000F07BFBE86A796D814238BF15
:10058000786508FB00F0291D484400F04AFBE86A42
:10059000B96ACA6A904228BF0126F86A006830B179
:1005A000F96AC868C56868688442DCD201E04FF027
:1005B000FF30F866B86AC06A08FB00F059F800100E
:1005C000022904D3012602E0F96D491CF965386E51
:1005D00000B10126D6E172B6502181F31188BFF334
:1005E0004F8FBFF36F8F62B6704710B5DFF88C2363
:1005F000106F10B10121116610BD1066516DDFF84A
:10060000F43300E0491E14244C43185920B9002942
:10061000F8D1FFF7E0FFFEE7181900F1080443687E
:100620005B684360A34204BF5B6843604068C36883
:100630009362516510BD10B50C4610B9FFF7D6FE98
:10064000FEE700F01BF800F0F9FA20460121BDE8B2
:10065000104000F0A5B938B50D46144610B9FFF7A3
:10066000C5FEFEE700F00AF800F0DBFA0CB14FF02F
:10067000FF3521462846BDE8344091E1DFF870237C
:10068000936A03F11801704738B5C068C46814B99B
:10069000FFF7A1FFFEE704F11800DFF8545300F064
:1006A000E6FA296F41B900F0EDF800F018F838BF0C
:1006B0006A6500F070F902E004F11801284600F0C4
:1006C000B0FA00F062F902D20120286632BD0020A3
:1006D00032BD1420211D4243981800F0A2BAE26AEC
:1006E000686DDFF8103390427047DFF804134A6EEC
:1006F0000260096D41607047F8B504460D46502010
:1007000014B900F028F8FEE715B900F024F8FEE768
:1007100000F04FFBDFF8D802016D62682E688B1A7B
:1007200016F1010F0ED0476ED4F800C0674501D016
:1007300091420BD2B34207D2F31A2B60416E216073
:10074000006D6060002402E000212960012400F0B7
:100750004DFB2046F2BD72B680F31188BFF34F8F78
:10076000BFF36F8F62B670470120DFF8841208660E
:100770007047000070B55A4CDFF8005211E000F0ED
:1007800018FB286AC668301D00F071FAE86C401E3C
:10079000E864696B491E696300F028FB304600F08D
:1007A0000EF8686B0028EAD121680229F9D34FF0CE
:1007B0008050DFF844221060FFF709FEF1E710B522
:1007C000044694F8590040B9206B00F0ABF920467C
:1007D000BDE8104000F0A6B910BD0128F7D00228EE
:1007E000FAD0FFF703FEFEE76449C86A006818B94B
:1007F0004FF0FF32CA667047C86AC268D36858684B
:10080000C8667047DFF8E811886D08B901207047A5
:10081000086F08B90220704700207047F8B50446F9
:10082000002074B3E16A554DAA6AD36A994222D274
:10083000A069002804D4A86AC26AC2F13802A26181
:10084000142762697943DFF8AC6131448A420ED1E2
:1008500000F018F8A96AC86AE0626A6D824238BF7F
:1008600068654743211DF01900F0DBF908E0A86A2C
:10087000C16AE16204E0E16CAA6AD36A994200D2DB
:100880000120F2BD201D00F0F2B938B50446002168
:100890001CB33A4D5022A86A844202D000F056F8A8
:1008A000FEE7206D10B900F051F8FEE7E26A401E45
:1008B000E36C20659A4210D078B9FFF7E3FFE26C51
:1008C000DFF83031E262C2F13800A061696D914217
:1008D00038BF6A65FFF7FDFE0121084632BD000002
:1008E000343C0020F8B504002FD0206D502210B900
:1008F00000F02CF8FEE7E36C994238BF1946E36A32
:100900008B4222D0012820D11C4DA86A844202D1FA
:1009100000F01CF8FEE7A069E162DFF8D86000286B
:100920005CBFC1F13801A161142761697B43F218F2
:1009300091420AD1FFF7A6FFE06A696D814238BF94
:1009400068654743211DF01958E0F1BD72B682F386
:100950001188BFF34F8FBFF36F8F62B67047DFF818
:100960009010886A18B1886A026D521C0265886A04
:10097000704700F03BFA284670BD00007848002020
:1009800004ED00E03046BDE8F283A86AE26AC16A7D
:100990009142704700001420211D4243981870476F
:1009A000F8B5134D0C462F6DA96A0646081D00F0D8
:1009B0005EF916F1010F05D124B1A86A011D05F1F8
:1009C00038001BE0A86AF619BE424660A86A05D244
:1009D000011D286BBDE8F44000F030B9011DE86A44
:1009E00000F02CF9E86E864238BFEE66F1BD0000DB
:1009F00078480020343C002004ED00E0BDE8F440DD
:100A000000F00FB949444C45000000002DE9F843BF
:100A100004466C4FFFF730FDB8684FF00009002521
:100A200008BB07F1180313F0070F07F118014FF483
:100A300070500A4605D0CA1DD208D200C2F57050C7
:100A4000081880180838C008C0003A60811A7D6014
:100A5000B860456005605160106050683861F860AA
:100A60004FF00040786179694FF050080C4247D14F
:100A7000002C45D0083414F0070F1FBF04F1080004
:100A800004F00704041B14F0070F02D000F041F833
:100A9000FEE7002C34D0F868A04231D339463E68D6
:100AA00001E0314606467268A24202D23068002850
:100AB000F7D1B868864223D00A6833680B6002F128
:100AC00008097268121B112A0CD3311911F00700A2
:100AD00002D000F01EF8FEE7301D02510846746097
:100AE00000F04CF83A697168F868401A9042F86072
:100AF00038BF3861786901437160356009F00705D6
:100B0000FFF7C0FC15B100F004F8FEE74846BDE869
:100B1000F28372B688F31188BFF34F8FBFF36F8FE4
:100B200062B67047002800D1704738B5A0F10804BC
:100B3000244D61686A695023114202D100F015F812
:100B4000FEE7206810B100F010F8FEE79143616005
:100B5000FFF792FCE968606841182046E96000F000
:100B60000DF8BDE83140FFF78DBC72B683F31188F4
:100B7000BFF34F8FBFF36F8F62B67047114930B527
:100B80000A4600E01A4613688342FBD35368D41820
:100B9000844203D14068C318104653604368146808
:100BA000C518A54208D189688C4204D06168CB1869
:100BB0004360246800E00C468242046018BF106065
:100BC00030BD00001C00002062F30F2262F31F42C0
:100BD00000B500BF130096469446103928BFA0E820
:100BE0000C50FAD85FEA417C28BF0CC048BF40F8DF
:100BF000042BC90728BF20F8022B48BF00F8012B9F
:100C000000BD4FF0FF3200F10801826000F10803DF
:100C100041600022C36001610260704700210161F0
:100C2000704710B542684A6093688B609468616051
:100C3000916008610168491C016010BD30B50A6807
:100C400012F1010F08BF036907D000F1080300E0AB
:100C500023465C682568AA42FAD25A684A609160C5
:100C60008B60596008610168491C016030BD10B596
:100C70004368016982689A608268446854604B687E
:100C8000834204BF82684A60002303610868401EF3
:100C90000860086810BD30B4002513E050F8042B3C
:100CA000D30744BFA9F101039A18091F042942F888
:100CB000045BFAD213468C0744BF15809B1CC907FE
:100CC00048BF1D7050F8041B0029E7D130BC7047A5
:100CD0004908490010B5A0F120034FF080749961D4
:100CE0000FF215011A606FF00202DC61596140F8E1
:100CF000242D203810BD00005D4950204A6812F1B3
:100D0000010F72B680F31188BFF34F8FBFF36F8F5F
:100D100062B600D0FEE7FEE73EB55649FF230A78EB
:100D2000019207220B700C788DF800409DF80000AE
:100D30004F4CA26000F05000207006E0401EA06002
:100D40009DF8000040008DF80000A0689DF800208C
:100D50001306F3D4C0F10705042D02D000F01FF8EC
:100D6000FEE7000200F4E060A060019808704248CD
:100D7000016841F470010160026842F07042026053
:100D800000F084F80020606000F0A0FA3B480168A1
:100D900041F04041016000F089FA00203EBD72B68A
:100DA000502080F31188BFF34F8FBFF36F8F62B66F
:100DB000704772B6502080F31188BFF34F8FBFF396
:100DC0006F8F62B62A494A68521C012A4A600CD1C8
:100DD0002B490A68130608D072B680F31188BFF356
:100DE0004F8FBFF36F8F62B6FEE7704720494868A8
:100DF00048B972B6502080F31188BFF34F8FBFF30C
:100E00006F8F62B6FEE7401E486008BF80F311880E
:100E1000704780B5FFF7C3FFFFF782FB18B14FF0B3
:100E2000805017490860002282F3118801BD00003C
:100E300010B5EFF30580502110280D4A0AD3114B4D
:100E4000185C1478A04205D272B681F31188FFF7BE
:100E5000AAFFFEE790680C4A136803F4E063984227
:100E600005D272B681F31188FFF79DFFFEE710BD32
:100E70000000002000E400E020ED00E034EF00E09E
:100E800004ED00E0F0E300E00CED00E030B50748D1
:100E900000210160064B81601C684FF47A750721C0
:100EA000B4FBF5F56D1E4560016030BD10E000E05B
:100EB00018000020084B036003F15C0008608021EB
:100EC00011607047054B036003F15C0008604FF44C
:100ED0008071116070470000F044002094400020B1
:100EE00010B586B0DFF8344300F070F9A068D0B1D7
:100EF000002204A9059205A8049203AAFFF7E2FFC5
:100F00000222059800920499039A0290019100230D
:100F10000FF210310FF26500FFF756F9E06010B1E3
:100F2000012006B010BD00F02DF9FEE7F8B504462B
:100F300084B01E46002014B900F024F9FEE7DFF863
:100F4000DC72BD68BDB106290091019202940CDAF1
:100F5000FFF758FC0228B868694607BF0A9A0023C1
:100F60000023002200F05FFA05E0002332466946C4
:100F7000284600F0EFFA05B0F0BD0000F8B586B0E5
:100F8000DFF898522968086810B90124002602E0A9
:100F9000C86800240668FFF76FFA01A800F0B5F8EA
:100FA00007460198002841D154BBB7422DD3FFF723
:100FB00069FA2868C168CC68201DFFF758FE94F8CC
:100FC0002800410717D5A16933463A4620468919BA
:100FD00000F0E2F840B100200023009032460021EA
:100FE0002046FFF7A3FF18B1216A2046884727E073
:100FF00000F0C8F8FEE700F0FE0084F82800F3E7F0
:10100000686801684C1EA441E40FA8682246F11BE1
:1010100000F0F2FCFFF736FA90B94FF080508049AB
:101020000860BFF34F8FBFF36F8F09E0FFF72AFA15
:1010300006E094F8280081073BD42046FFF772FDB4
:10104000A868002202A900F017FB00289AD0029895
:10105000002803D505990498039A90470298002820
:10106000EED4049C606910B1201DFFF700FE01A8BA
:1010700000F04BF802990929E2D8DFE801F02121BC
:10108000211A070621211A07DAE7D2E794F8282067
:1010900042F0010284F828200399A16131B103468E
:1010A00002460918204600F077F8C9E700F06AF810
:1010B000FEE794F8280000F0FE0084F82800BFE75F
:1010C00094F828100246A06941F0010184F8281024
:1010D00003990B464118204600F05EF80028AFD077
:1010E000216A2046884794F828004207A8D50021A5
:1010F000039A0091A069002382182046FFF716FF8B
:1011000000289DD100F03EF8FEE72DE9FC4106469F
:10111000424DFFF701FA0446286984420BD30021AF
:10112000316020462C61BDE8F6817860391D3F6151
:101130002868FFF783FD29680868F0B1C868C768A8
:10114000D0F80080381DFFF792FD396A384688478D
:1011500097F828004207EED5B86940448045E4D3AB
:10116000002000230090424600213846FFF7DEFEB3
:101170000028E0D100F006F8FEE7686869602860A2
:101180000121CDE772B6502080F31188BFF34F8F55
:10119000BFF36F8F62B6704738B500248A42416052
:1011A0001E4D006106D3D21A83699A4206D2011DF0
:1011B000686807E09A4203D2994201D3012403E010
:1011C000011D2868FFF73AFD204632BD1CB5FFF728
:1011D000F0FD124CA068E0B904F11400FFF711FD16
:1011E00004F12800FFF70DFD04F1140004F12801BB
:1011F00000222060616004F13C03009204F18C0243
:1012000010210A2000F0A9F8A06010B107A100F099
:10121000DEFBBDE81340FFF7E9BD00004C470020AE
:1012200004ED00E0546D722053766300546D7251EA
:1012300000000000EFF30980BFF36F8F274B1A689F
:101240001EF0100F08BF20ED108A20E9F04F10604B
:1012500009B44FF0500072B680F31188BFF34F8F7E
:10126000BFF36F8F62B6FFF7C0F94FF0000080F355
:10127000118809BC19680868B0E8F04F1EF0100F1B
:1012800008BFB0EC108A80F30988BFF36F8F7047F6
:10129000124B19680868B0E8F04F80F30988BFF373
:1012A0006F8F4FF0000080F3118870470C48006882
:1012B000006880F308884FF0000080F3148862B65D
:1012C00061B6BFF34F8FBFF36F8F00DFDFF81400FD
:1012D000016841F47001016070470000A0480020DF
:1012E00008ED00E088ED00E070B504000D4602D185
:1012F00000F08FF8FEE7FFF75CFD206CE16B2268E1
:10130000002600FB01F3491E48434FF0FF31134410
:10131000A3601044A663E06004F1440062600170C1
:10132000417075B92069A0B104F11000FFF7ACF964
:1013300078B14FF08050DFF8B816086000F005F97A
:1013400007E004F11000FFF75CFC04F12400FFF754
:1013500058FCFFF74BFD012070BD7CB51C465023A7
:1013600010B900F01FF8FEE714B900F01BF8FEE713
:101370001AB119B900F016F8FEE769B90093009E9A
:10138000502E0CD1069B009D012684F846600094E7
:1013900000F030F8204676BD00F004F8FEE700F0DB
:1013A00001F8FEE772B683F31188BFF34F8FBFF3E6
:1013B0006F8F62B67047F8B506000D46174602D12A
:1013C00000F027F8FEE7002D0EBF502005FB06F0C9
:1013D0005030FFF71BFB04000AD000203B4684F886
:1013E000460004F1500200942946304600F002F80D
:1013F0002046F2BD38B51C46049D01B92A462A6034
:10140000E863284629640121FFF76EFF85F84C4008
:1014100031BD72B6502080F31188BFF34F8FBFF3F8
:101420006F8F62B670472DE9F64782B004461E46BC
:10143000502714B900F00BF9FEE75FEA010A01D169
:10144000206C60B9022E02D1E06B01280AD1FFF7AF
:10145000D9F950B9039840B100F0F9F8FEE700F06F
:10146000F6F8FEE700F0F3F8FEE72746002400F068
:1014700076F92DE00398002848D00CB900F01BFA4B
:10148000FFF7B4FCFEF7F8FFFFF793FC07F1440009
:1014900000F007FA04BF0022027000F007FA04BF50
:1014A00000224270FFF7A2FC00F049F8002840D16A
:1014B000FFF77FFCB86BF96B884214BF002501254C
:1014C000FFF794FC35BB384600F042FAFEF7DAFF2E
:1014D000FFF76FFCB86BF96B884201D3022EC9D1BC
:1014E00032465146384600F0ECF9796A29B107F1E5
:1014F0002400FFF7C9F808B902E008B100F023F8AA
:10150000FFF774FC012004B0BDE8F087FFF76EFC24
:101510000020F8E7039907F11000FFF78CF8384630
:1015200000F016FAFEF7AEFF0028D1D100F00BF85C
:10153000CEE7384600F00CFAFEF7A4FFE8E703A96F
:101540006846FFF7D9B8C8F80090BFF34F8FBFF3D4
:101550006F8F70472DE9F8430446884615461E46AE
:10156000502714B900F073F8FEE7B8F1000F01D16D
:10157000206C20BB022E02D1E06B012822D1FFF7A4
:1015800057FCEFF3118900F06BF801D3022E21D143
:1015900094F9457032464146204600F092F917F121
:1015A000010F12D1606A98B104F12400FFF76CF8C2
:1015B000002818BF002D0BD00120286008E000F0A3
:1015C00046F8FEE700F043F8FEE77F1C84F845701C
:1015D000012000E0002089F31188BDE8F283F8B50E
:1015E00004460D46502714B900F031F8FEE7206C90
:1015F00010B100F02CF8FEE7216809B9A068D0B955
:10160000FFF716FCEFF3118600F02AF81BD294F9CD
:101610004510401CA06311F1010F0FD1606A80B129
:1016200004F12400FFF730F8002818BF002D08D07F
:101630000120286005E000F00AF8FEE7491C84F864
:101640004510012000E0002086F31188F2BD72B63B
:1016500087F31188BFF34F8FBFF36F8F62B6704768
:1016600072B687F31188BFF34F8FBFF36F8F62B6E7
:10167000A06BE16B884270472DE9F74306460F46A1
:101680000024502516B900F06FF8FEE70FB9306C52
:1016900038B9FFF7B7F858B9029848B100F064F8C4
:1016A000FEE700F061F8FEE700F009F9FEF7EAFE58
:1016B000FFF77FFBB56B00F052F82DB90298B8B96F
:1016C000FFF794FB002011E03946304600F02DF979
:1016D0006D1EB563306930B106F11000FEF7D4FF1E
:1016E00008B1FFF730FFFFF781FB0120BDE8FE8363
:1016F0000CB900F0E0F8FFF779FBFEF7BDFEFFF74D
:1017000058FB06F14400415711F1010F04BF0022BC
:10171000027000F0CBF804BF00224270FFF766FBB6
:1017200002A9FFF70DFF002830460ED100F044F962
:101730000028B9D000F0B0F800F0C1F8FEF7A2FE22
:101740000028B5D1FFF7FFFEB2E700F001F9FEF780
:1017500099FE304600F030F90028A9D0B2E7DFF852
:1017600090824FF08059704772B685F31188BFF3AD
:101770004F8FBFF36F8F62B670472DE9F24382B08F
:10178000064600240025502716B9FFF760FFFEE744
:10179000306C10B1FFF75BFFFEE7FFF733F840B99D
:1017A000029830B1FFF753FFFEE700F088F8FEF72C
:1017B00069FEFFF7FEFAB06BFFF7D1FF30B9029870
:1017C000C0B9002D63D0FFF742FFFEE7401EB063B3
:1017D000306810B9FFF7C3F8B060306930B106F176
:1017E0001000FEF751FF08B1FFF7ADFEFFF7FEFA5C
:1017F00001204FE00CB900F05EF8FFF7F7FAFEF7B2
:101800003BFEFFF7D6FA06F1440000F04AF804BFA9
:101810000022027000F04AF804BF00224270FFF775
:10182000E5FA02A9FFF78CFE0028304618D100F037
:10183000C3F80028B9D0306838B9FFF7BAFAB068F1
:10184000FEF7ECFF0546FFF7D1FA00F025F800F0AF
:1018500036F8FEF717FE0028ABD1FFF774FEA8E7B5
:1018600000F076F8FEF70EFE304600F0A5F80028EE
:101870009FD075B1FFF79DFA706A0028B0681DBF50
:10188000316B0968C1F138010021FFF72BF8FFF730
:10189000ADFA0020BDE8FE83029906F12400FEF7B0
:1018A000CABE90F9001011F1010F704790F90110B4
:1018B00011F1010F704768460124FEF716BF30464C
:1018C00046E0F8B506461546B46B326C002742B9BF
:1018D000316831BBB068FEF7D8FF00210746B16020
:1018E0001FE065B9706800F0ABF8B2687068316CE1
:1018F00008449042706014D33068706011E0F06862
:1019000000F09EF8306CF16840420144F1603268AA
:10191000914202D2B3681844F060022D01D104B1A3
:10192000641E641C3846B463F2BD38B5026C0B46C5
:101930006AB18468C1681144C160A14224BF0568CE
:10194000C560C1681846BDE8384000F079B831BDBF
:10195000F8B5054605F14404FFF72BFA94F9016048
:1019600007E005F12400FEF78FFE08B1FEF7FCFE4C
:10197000761E70B2012802DB686A0028F1D14FF0B0
:10198000FF366670FFF732FAFFF713FA94F900702A
:1019900007E005F11000FEF777FE08B1FEF7E4FE60
:1019A0007F1E78B2012802DB28690028F1D1267059
:1019B000BDE8F140FFF71ABA10B50446FFF7F9F990
:1019C000A06B441EA441FFF711FAE00F10BD10B543
:1019D0000023084C54F833201AB15B1C082BF9D3B0
:1019E00010BD44F8331004EBC301486010BD000083
:1019F00004ED00E0E4490020F8B504460D46164623
:101A000004F13807FFF7D5F997F90C0010F1010F31
:101A100004BF0021397397F90D0010F1010F04BFC5
:101A200000217973FFF7E2F9386828B93246294670
:101A300004F12400FEF70FFE2046BDE8F24087E7E0
:101A40004AB1000011F8013B521E00F8013B1CBFD7
:101A500011F8013BF8E7704738B5040009D004F1EC
:101A60007405696809B900F01BF800F01EF8012838
:101A700001D1012032BD606A08B100F027F800F002
:101A800007F822F02A02826000F019F800F07FB80F
:101A90002068416821F49041416020688268704765
:101AA00000202870204600F08CBA2421696020684C
:101AB0000268520852000260204600F06BB82068AD
:101AC000016841F00101016020467047204600F0A6
:101AD00071B92DE9FC47054605F174046068884634
:101AE0001746994620284DD1B8F1000F14BF002F9A
:101AF000012048D02078012844D005F1500601216A
:101B000021700022E2602120606000F0B9FA378085
:101B100082467780A968B1F5805F04BF28690028F4
:101B20000EBF4746404600270021804621700FE047
:101B300018F8012B826208E0B8F1000F2868F7D18D
:101B400037F8021BC1F3080181627288511E71804F
:101B50007088CDF800905346002807D000228021DD
:101B6000284600F0ACF90028E6D005E0002240212C
:101B7000284600F0A4F908B1032004E020206060AA
:101B8000002000E00220BDE8F68720215160BDE87A
:101B9000324073E170B504467B48236800251E6817
:101BA000A1682269064060690E43E1691643064355
:101BB0000E431E605A68E06822F4405202435A60A5
:101BC0009A68A169206A22F430620A4302436F488E
:101BD0009A606F4A934235D1016801F003010329ED
:101BE00003D8DFE801F07D4C3D5B1021E3694FF63F
:101BF000F07668484FF40042B3F5004F40F09C8007
:101C000059B1012900F0908002290AD0042900F07E
:101C10008E80082900F08E80B0E000F077FC00286C
:101C20000FD061684A0802EB4002B2FBF1F0A0F16C
:101C30001001B142F0D20640C0F3420006432068D2
:101C4000C6609CE054498B420CD1026812F00C0231
:101C500068D0042A13D0082A02D00C2A1ED0C4E768
:101C60000221C3E74D498B420BD1006810F03000D0
:101C700058D0102803D02028F2D03028EEE70421D5
:101C8000B4E747498B420BD1006810F0C00049D03F
:101C90004028F4D08028E3D0C028A6D10821A5E7A9
:101CA00040498B420CD1006810F440703AD0B0F536
:101CB000807FE4D0B0F5007FD2D0B0F5407FCDE793
:101CC000394A93420ED1016811F4406108D0B1F550
:101CD000806FD4D0B1F5006FC2D0B1F5406FBDE7D1
:101CE000012183E7314A93420CD1006810F440503F
:101CF00018D0B0F5805FC2D0B0F5005FB0D0B0F5BD
:101D0000405FABE72A498B42C7D1026812F44042D8
:101D100008D0B2F5804FB2D0B2F5004FA0D0B2F5E6
:101D2000404F9BE7002161E700F0F8FB77E700F008
:101D3000C7FB74E7104674E741B1012916D00229A8
:101D400007D0042915D0082916D017E000F0DEFBD3
:101D5000A8B1616800EB5100B0FBF1F0A0F11001F7
:101D6000B1420BD2226880B2D06008E000F0D6FB0E
:101D7000EEE700F0A5FBEBE71046EAE701250020BF
:101D80006066A066284670BDF369FFEF9038024098
:101D9000001001400024F4000044004000480040CE
:101DA000004C00400050004000140140007800400A
:101DB000007C004010B590F82410CA0706D50268D0
:101DC0005368816A23F400330B43536090F8242056
:101DD000910706D502685368C16A23F480330B4328
:101DE000536090F82420510706D502685368016BB0
:101DF00023F480230B43536090F82420110706D569
:101E000002685368416B23F400430B43536090F81E
:101E10002420D10606D502689368816B23F4805391
:101E20000B43936090F82420910606D502689368CE
:101E3000C16B23F400530B43936090F824205106A8
:101E400010D502685368016C23F480130B43536070
:101E5000036CB3F5801F05D15468416C24F4C004B1
:101E60000C43546090F82420110606D501684A6896
:101E7000806C22F4002202434A6010BD7CB5044607
:101E800004F174050020E86000F0FAF821680346C8
:101E90000A6810070BD56FF07E46002200964FF4BB
:101EA0000011204600F00BF808B1032076BD202079
:101EB00000226860A86000202266287076BD2DE9A7
:101EC000F04105460E4690461F46069C2868C169AB
:101ED0003140B1420CBF01200020404535D114F102
:101EE000010FF3D000F0CCF8C01B844200D37CB9C2
:101EF00000F02EF800F044F8FAD100F02FF8FCD1F1
:101F000005F17400202141600023816003701AE014
:101F1000286801684A07D9D5C3691905D6D54FF491
:101F20000062026200F014F8034600F025F8F9D1CF
:101F300000F014F8FCD105F17400202141608160AB
:101F4000C16000210170032000E00020BDE8F081A5
:101F5000286850E8001F21F4D0717047286800F10C
:101F6000080151E8001F490800F10803490043E84F
:101F7000001000287047134643E8001000287047FF
:101F8000024642E8001000287047000082B037483F
:101F9000016841F080510160026802F080520092B5
:101FA0000099426842F4804242604068002200F496
:101FB0008040009000996FF0010002B00F2100F006
:101FC00003BB18B5A7B0044614220021684600F0F0
:101FD0002DFB8422002106A800F028FB2168244A5A
:101FE000914240D140230024069306A8179400F0A4
:101FF00027FB08B100F084FE1E48416941F0100142
:102000004161426902F0100205920599036843F0AC
:1020100002030360026802F0020205920599036858
:1020200043F00103036002688023134802F00102B9
:10203000059205990222009301920721032204913F
:1020400002946946039200F071FE4FF4007102227F
:1020500000910321019207220391694602940748E7
:10206000049200F063FE28B010BD0000403802402A
:1020700000100140303802400004024000000240DD
:1020800001484068704700BF0C0000202DE9FC416A
:1020900004460025002C16D02078DFF8CC64C10758
:1020A00013D5B26802F00C02042A07D0B06800F021
:1020B0000C0008283DD1716848023AD53268910376
:1020C00003D56068002800F06F8121788A0719D550
:1020D000B06810F00C0F07D0B16801F00C010829AE
:1020E00062D1706841025FD43268900703D5E1681D
:1020F000012940F059813068216920F0F80040EA58
:10210000C10030602278130779D5606900286DD04E
:10211000716F41F001017167FFF7B2FF0746706F01
:10212000810773D4FFF7ACFFC01B0228F7D9032047
:102130003DE16068B0F5803F0FD038B9316821F4D7
:1021400080313160306820F4802009E0B0F5A02FA4
:1021500008D1316841F480213160306840F480302A
:10216000306007E0326822F480323260316821F456
:1021700080213160606858B1FFF782FF07463168FF
:102180008803A2D4FFF77CFFC01B6528F7D3CEE7F6
:10219000FFF776FF07463068810396D5FFF770FF9B
:1021A000C01B6528F7D3C2E7E06878B1316841F019
:1021B00001013160FFF764FF0746306881079AD458
:1021C000FFF75EFFC01B0228F7D9B0E73068400870
:1021D00040003060FFF754FF07463168880791D50B
:1021E000FFF74EFFC01B0228F7D9A0E7706F400829
:1021F00040007067FFF744FF0746706F810705D501
:10220000FFF73EFFC01B0228F7D990E7207841076F
:1022100061D5326CD00009D4316C012541F0805178
:102220003164306C00F0805000900099DFF8487302
:102230003868C10510D43A6842F480723A60FFF7FA
:102240001FFF80463868C10506D4FFF719FFA0EBD1
:1022500008006528F6D36AE7A068012804D1306F2A
:1022600040F00100306713E008B9306F09E005283D
:10227000306F06D140F004003067316F41F001014A
:1022800005E0400840003067316F21F004013167FC
:10229000A06841F2893760B1FFF7F2FE8046306FE7
:1022A000810713D4FFF7ECFEA0EB0800B842F6D389
:1022B0003DE7FFF7E5FE8046306F810706D5FFF763
:1022C000DFFEA0EB0800B842F6D330E71DB1306C5A
:1022D00020F080503064A069002867D0B16801F018
:1022E0000C0108293ED00228306820F08070306050
:1022F0002CD1FFF7C5FE05463168880105D5FFF7EB
:10230000BFFE401B0228F7D911E7E069216AA36AE2
:10231000626A0843E16A40EA82105B085B1E40EA99
:10232000034040EA016040F000507060306840F0C7
:1023300080703060FFF7A4FE04463168880135D410
:10234000FFF79EFE001B0228F7D9F0E6FFF798FE84
:1023500004463168880129D5FFF792FE001B022848
:10236000F7D9E4E6012871681ED0E26901F4800023
:10237000904202BF01F03F03206A834201BF47F64B
:10238000C0720A40636AB2EB831F0DD1A26A01F4E6
:1023900040305208521EB0EB024F02BF01F0706194
:1023A000E06AB1EB006F01D0012000E00020BDE841
:1023B000F6812DE9F0410400884651D06F4E306817
:1023C00000F00F00404502D200F070F848D12068BC
:1023D000654D810712D5400703D5A96841F4E05146
:1023E000A9602078010703D5AA6842F46042AA6078
:1023F000A968A06821F0F0010143A9602178CA070B
:1024000026D56068012802D129688A0303E00228E2
:1024100003D129688A0103D422E02B6899071FD5CC
:10242000AA68920840EA8200A860FFF729FE0746E2
:10243000A868616800F00C00B0EB810F08D0FFF7CE
:102440001FFEC01B41F289329042F1D303202BE0E2
:10245000306800F00F00804504D200F027F801D06A
:10246000012021E02078410705D5AA68E06822F420
:10247000E0520243AA6021780A0706D5A8682169BC
:1024800020F4604040EAC100A86000F019F8AA6892
:102490003B49364BC2F30312895CC840186034488C
:1024A000006800F05FFD0020BDE8F0813168090997
:1024B00048EA01113160326802F00F02424570476C
:1024C00030B5314C606800F00C00042802D00828B8
:1024D00002D019E02D4830BD00232268206825680D
:1024E0004102C5F3881002F03F024CBF2749214941
:1024F000A1FB000100F072FD2168C1F30141491CFC
:102500004900B0FBF1F030BD1A4830BD17481D4AF4
:10251000006813681E49C3F3822206E01348194A73
:10252000006813681A49C3F34232895CC840704797
:1025300010B50F220260134A136803F003034360CF
:10254000146804F0F0048460136803F4E053C3607B
:102550001268D20802F4E05202610848036803F0EE
:102560000F030B6010BD000000380240180000206F
:10257000140000200024F40000700040003C0240E1
:10258000C4350008083802400438024040787D0114
:10259000383600080901020002D41F4881547047F0
:1025A0001E4B02F00F021A4402F8041C70471C4B29
:1025B0004FF6FF021968000200F4E0601140084382
:1025C000184908431860704770B5154B1C68C4F370
:1025D00002230124C3F10705052D2EBF0F2504FAA0
:1025E00005F56D1E1E1D072E34BF0023DB1E29407E
:1025F000994004FA03F35B1E1A401143BDE8704092
:10260000C8E7010007D4012200F01F018A40064BF1
:10261000400943F82020704700E400E018ED00E096
:102620000CED00E00000FA0500E100E010B5044602
:1026300010460A460146204600F054FD204610BDD3
:102640002DE9FC47064600253078A846DFF840749F
:10265000C1070AD5BA6822F40002BA60BB68716B80
:102660000B43BB60706B00B901253068DFF8244470
:1026700001030ED5A268F06B22F440120243A2605F
:10268000F06BB0F5801F08BF012502D008B94FF0EC
:1026900001083068C1020ED5A268306C22F44002F5
:1026A0000243A260306CB0F5800F08BF012502D054
:1026B00008B94FF001083068C10148BF0125800604
:1026C0005ED5396CDFF8D09341F080513964386CB5
:1026D00000F0805000900099D9F8000040F480701C
:1026E000C9F80000FFF7CCFC8246D9F80010C805F5
:1026F00007D4FFF7C5FCA0EB0A006528F5D303203B
:10270000B0E1386F10F440701EBF316B01F44071BE
:1027100088421DD0386F396F41F4803139673A6F84
:1027200020F4407022F480323A673867386FC1076E
:102730000ED5FFF7A5FC8146386F810708D4FFF757
:102740009FFCA0EB090041F289329042F4D3D6E716
:10275000316B01F44070B0F5407F07D1BA68DFF803
:102760003C03014022F4F812114302E0B96821F45D
:10277000F811B960386F316BC1F30B01084338674A
:102780003078C10607D5A26822F08072A260A168E5
:10279000B06B0143A1603268510405D5E368706EE7
:1027A00023F440330343E36031680A0405D5E3684A
:1027B000B06E23F440230343E3603168CA0305D5B8
:1027C000E368F06E23F440130343E36031688A0347
:1027D00005D5E368306F23F440030343E3603178A9
:1027E0004A0605D5E368706C9B0840EA8303E36002
:1027F00031780A0605D5E368B06C23F00C03034377
:10280000E3603168CA0505D5E368F06C23F0300356
:102810000343E36031688A0505D5E368306D23F032
:10282000C0030343E36031684A0505D5E368706D72
:1028300023F440730343E36031680A0505D5E36878
:10284000B06D23F440630343E3603168CA0405D5E7
:10285000E368F06D23F440530343E36031688A0476
:1028600005D5E368306E23F440430343E3603168E9
:102870004A0205D5E368B06F23F080630343E36049
:1028800031688A020BD5E368F06F23F000630343DD
:10289000E360F16FB1F1006F08BF4FF001083068DD
:1028A000010748BF4FF00108400305D5E168706F8C
:1028B00021F040710143E16031680A0206D5E36806
:1028C000D6F8800023F080530343E36015B93168E4
:1028D000880166D53A6822F080623A60FFF7D0FB43
:1028E00005463868010105D5FFF7CAFB401B65287E
:1028F000F7D304E73178CA070FD5706B68B9206841
:102900002168726800F4403040EA821001F0706182
:102910000843B16840EA017020603068020303D5C3
:10292000F16BB1F5801F05D0C00211D5316CB1F546
:10293000800F0DD1206821687268F36800F09EF85E
:102940002060A068716A4009491E41EA4010A060F9
:102950003068C10106D5206821683369726800F0CB
:1029600083F82060306881010BD530697268F168A6
:10297000000440EA8210B26840EA016040EA027056
:102980002060386840F080603860FFF779FB0546CA
:102990003968080105D4FFF773FB401B6528F7D39E
:1029A000ADE6B8F1000F5CD0386820F08050386098
:1029B000FFF766FB05463968880005D5FFF760FB21
:1029C000401B6528F7D39AE631680A0301D5F06BFE
:1029D00018B1C90210D5306C70B96068616872694D
:1029E000B36900F04BF86060A068B16A20F4F85059
:1029F000491E40EA0120A060306881020AD5F26FCA
:102A0000B2F1006F06D160686168336A726900F0E4
:102A10002BF860603078010713D5606861687269CF
:102A200001F4403141EA821100F070600843F1691D
:102A300040EA01706060A268F06A22F4403202430A
:102A4000A260396841F080513960FFF719FB0446F4
:102A50003868810005D4FFF713FB001B6528F7D306
:102A60004DE60020BDE8F6871B0443EA821300F020
:102A7000706001F0E04118430843704700F44030B3
:102A800040EA821001F0E04140EA036008437047E9
:102A9000003802408438024000700040FFFCFF0F05
:102AA00010B586B08C4C00F027FB00F0BBF8142169
:102AB00001A800F02DFB8948016841F00201016086
:102AC000026802F0020200F073F843F008030360AA
:102AD000026802F0080200F06BF843F001030360A3
:102AE000026802F0010200F063F843F480730360AF
:102AF000026802F4807200F05BF8002243F0800369
:102B00000360006800F080000090009920461021CA
:102B100000F0F7F91021012200F044F82046049358
:102B2000002400F003F94FF400614FF4881200F024
:102B300039F86B4800F0FAF8002205212820FFF749
:102B400043FD2820FFF75DFD4FF4E1326548426008
:102B50000023654983610C2201608360C4600361C6
:102B60004261C36103624362FEF776FF08B100F081
:102B7000C7F80322002101205C4CFEF71CFC2060FA
:102B800008B900F0BDF8201D02210190002300913A
:102B90004FF480725BA10FF22100FDF747FBFDF7B8
:102BA0002FFCFEE701910023029201A903937047D5
:102BB000009200990368704730B587B04FEA0D0066
:102BC00053A11C22FEF73CFF464C484D28684FF0AD
:102BD000FF31FEF7D2FD0128F8D110213E4800F068
:102BE00094F9684600F098FA82B24FF0FF336946D4
:102BF0002046FEF76EFFE9E780B50022B0F5006FD2
:102C000000920ED1394B69461868FEF7E8FC00982F
:102C100038B14FF08051364A1160BFF34F8FBFF388
:102C20006F8F01BD80B592B0302106A800F070FA18
:102C3000142101A800F06CFA2E484FF4803301688B
:102C400041F080510160006800F0805000900099D0
:102C50002948026842F4404202600068012200F400
:102C600040400090009906924FF4800202210D929C
:102C70000C9119214FF4D8720E910F920221092262
:102C80000793109106A81192FFF700FA08B100F01F
:102C900037F800F04BFA08B172B6FEE70F210222B6
:102CA00001914FF4A0510292002304914FF48052FD
:102CB00003930721059201A8FFF77BFB08B172B6C9
:102CC000FEE713B000BD00680C49884208BF00F061
:102CD00067BA704700000000000C02403038024024
:102CE000002002401449002000100140244A002026
:102CF00004ED00E040380240007000400000014058
:102D000072B6FEE7427574746F6E5461736B0000A7
:102D1000427574746F6E20507265737320446574CD
:102D20006563746564210D0A000000002DE9F84F09
:102D30000D460026DFF8F411DFF8F4210F230446D6
:102D40002F680120B04000EA0708804540F0D3809A
:102D50004FEA460C032707FA0CF76FEA070E6F6875
:102D600007F00309B9F1010F1CBF07F00307022F99
:102D700012D1A768D5F80C900EEA070709FA0CF9EA
:102D800049EA0707A760676827EA00006F68C7F38A
:102D90000017B740384360602F79B00007F0030791
:102DA000032F22D0E768D5F808900EEA070709FA42
:102DB0000CF949EA0707E7602F7907F00307022FAC
:102DC00013D14FEAD60904EB890700F01C0903FA76
:102DD00009FBD7F820A02AEA0B0AD5F810B00BFAA5
:102DE00009F949EA0A09C7F8209027680EEA070E90
:102DF0002F7907F0030707FA0CF747EA0E07276059
:102E00006F6817F4403F76D017684FEA960C00F0D1
:102E10000C0003FA00FE47F480471760176807F4B8
:102E200080470097009F434F57F82C7027EA0E0EFB
:102E3000414FBC4208BF00272CD0404FBC4208BFC6
:102E4000012727D03E4FBC4208BF022722D03D4F6A
:102E5000BC4208BF03271DD03B4FBC4208BF04271C
:102E600018D03A4FBC4208BF052713D0384FBC4298
:102E700008BF06270ED0374FBC4208BF072709D02E
:102E8000354FBC4208BF082704D0344FBC420CBFAA
:102E900009270A2707FA00F040EA0E00254F47F8F5
:102EA0002C008F686FEA080000EA070C6F68FF02C9
:102EB00048BF48EA0C0CC1F808C0CF6800EA070C0C
:102EC0006F68BF0248BF48EA0C0CC1F80CC04F68DD
:102ED00000EA070C6F68BF0348BF48EA0C0CC1F852
:102EE00004C00F6800EA070C6868C00348BF48EADE
:102EF0000C0CC1F800C0761C0F2E7FF621AFBDE888
:102F0000F18F02B9090481617047426901EA020345
:102F1000914341EA034181617047114A13680342BA
:102F20001CBF1060FFF768BE70470000003C014006
:102F300044380240083801400000024000040240CA
:102F400000080240000C0240001002400014024041
:102F500000180240001C02400020024000240240F1
:102F6000143C014018B5014687B000221920FFF734
:102F70002BFB1920154CFFF744FB1548016841F065
:102F800001010160006800F001000090009902A8B2
:102F900001A9FFF7CDFAFFF7C1FA40000D4B0E492A
:102FA00040F2E732B0FBF3F02160401E6060002188
:102FB000E26020462161A16000F0FAF818B92046CD
:102FC00000F003F900E0012008B010BD984900208E
:102FD0004438024040420F0000000140D3BBD9B149
:102FE000B2F5803F5BD2022A1ED98C46B1FBF2F1CA
:102FF00002FB11C31B0443EA1043B3FBF2FC02FBC8
:103000001C3380B240EA0343B3FBF2F002FB103200
:1030100040EA0C4000237047022A05D98446B0FBE1
:10302000F2F002FB10C270474AB105D100F0010274
:1030300049085FEA3000704700220023704700F023
:103040004FBA0B000200002100207047F7D3002286
:1030500000237047904271EB030CF2D370B5B1FAC4
:1030600081F4B3FA83F52C1BA340C4F1200532FA96
:1030700005F63343A2405FF00046E64002E05B08FD
:103080005FEA3202841A71EB030524BF2046294609
:103090007641F4D302000B003000002170BD70B502
:1030A000B1FA81F4B2FA82F5C4F120046419B4F1E2
:1030B0002006DAD3B2405FF00044F440002502E07D
:1030C00052085FEA3303C61A71EB020E24BF304682
:1030D000714664416D41F3D302000B0020002900CA
:1030E00070BD00004018491C1CBFB1F1010100F87F
:1030F000012DF9D17047000080B50320FFF757FA82
:103100000F20FFF72FFFFEF741FF002002BD000058
:103110000022FDF75DBD000000F1010310F8011B66
:1031200011B110F8011BFBE7C01A70477CB500F025
:1031300023F840F4803000F01CF806466068C103B4
:1031400006D4FEF79DFF801BA842F7D3032076BD6F
:10315000206840F4003000F00CF8064661688803EF
:1031600005D4FEF78DFF801BA842F7D3EEE70020C1
:1031700076BD2060FEF784BF0848074C016840F226
:10318000E93541F080510160006800F08050009006
:1031900000992068704700000070004040380240ED
:1031A0000248416802788A18426070470C0000208B
:1031B00038B5040001D1012032BD00F071F818B912
:1031C00000F06AF800F08AF941E090F83D1001291A
:1031D00001D001207047022280F83D200168CB68B1
:1031E00043F00103CB600168DFF88C00814218BF17
:1031F000B1F1804F17D0DFF8842091421CBFDFF877
:10320000800081420FD0DFF87C3099421CBFDFF88C
:103210007820914207D0DFF8740081421CBFDFF8AC
:10322000703099420DD18A68DFF868000240062AA2
:1032300018BFB2F5803F08D00A6842F001020A6068
:1032400003E0086840F00100086000207047022099
:10325000211D6870206800F0D8F801202873A8703C
:10326000E87028716871A871E87128726872A87294
:10327000E8726870002032BD000001400004004088
:1032800000080040000C00400004014000400140E4
:1032900000180040070001000021204629707047F7
:1032A00004F13C056878704710B504462068016950
:1032B0008A0715D5C368990712D56FF0020201235A
:1032C00002612377806910F0030F204602D000F0DE
:1032D00008F903E000F006F900F094F800202077E8
:1032E000206801694A0715D5C368590712D56FF0E0
:1032F0000402022302612377806910F4407F204694
:1033000002D000F0EEF803E000F0ECF800F07AF8FC
:1033100000202077206801690A0715D5C3681907BE
:1033200012D56FF00802042302612377C06910F000
:10333000030F204602D000F0D4F803E000F0D2F8EA
:1033400000F060F80020207720680169CA0615D5D2
:10335000C368D90612D56FF01002082302612377E3
:10336000C06910F4407F204602D000F0BAF803E0B4
:1033700000F0B8F800F046F80020207720680169D6
:10338000CA0708D5C368D90705D56FF001020261E5
:103390002046FFF798FC206801690A0608D5C36833
:1033A000190605D56FF080020261204600F09BF8F7
:1033B00020680169CA0508D5C368190605D56FF4E8
:1033C00080720261204600F08FF8206801694A0689
:1033D00008D5C368590605D56FF040020261204642
:1033E00000F083F8206801698A060AD5C368990647
:1033F00007D56FF0200202612046BDE8104000F0C2
:1034000075B810BD204600F072B8F0B5DFF8A050D6
:103410000668A842DFF89C40DFF89C30DFF89C701B
:10342000DFF89CC018BFB0F1804F07D0604518BFCF
:10343000B84203D0984218BFA0420DD14A6826F086
:1034400070061643A84218BFB0F1804F1AD06045ED
:103450001CBFB842984215D0A0421CBFDFF86430B0
:1034600098420FD0DFF8602090421CBFDFF85C70FC
:10347000B84207D0164B98421FBF164A9042164FCB
:10348000B84203D1CB6826F440761E434A6926F041
:1034900080061643A84206608B68C3620E68866287
:1034A00012BFA0420969016301224261F0BD000020
:1034B0000000014000040140000C004000080040F2
:1034C0000004004000400140004401400048014029
:1034D00000180040001C0040002000407047000021
:1034E0007047704770477047704770477047704724
:1034F00030B5016884684218416802EB5103C9077E
:1035000003D54C4401E0491C05D19A420AD012F976
:10351000011B12F8015B002904F8015BF3D4491E7A
:10352000F7D5F2E70C3030BD10B5074979441831B2
:10353000064C7C44163404E00A68081D1144884790
:103540000146A142F8D110BD2C0000004800000047
:103550004EF68851CEF20001086840F47000086011
:10356000BFF34F8FBFF36F8F4FF00070E1EE100A83
:103570007047000023D7FFFF104A00001C00002006
:10358000000000006DFFFFFF380200002400000073
:1035900000000020FEE7FEE7FEE7FEE7FEE77047DB
:1035A0000148FFF781BE0000984900204FF40060F9
:1035B000FFF7B3BC0248016841F470010160704735
:1035C00088ED00E00000000000000000010203049C
:1035D0000607080900F00DF8002801D0FFF7A4FF46
:1035E000AFF300800020AFF30080FFF759FA00F03E
:1035F00002F80120704700F001B800000746384685
:1036000000F002F8FBE7000080B5AFF30080024A4B
:1036100011001820ABBEFBE72600020001488047DE
:1036200001480047B53500082D360008AFF300808B
:10363000FFF78EFFFFF7CEFF00000000010203043A
:10364000FFF7FEBFFFF7FEBFFFF7FEBFFFF7FEBFAE
:10365000FFF7FEBFFFF7FEBFFFF7FEBFFFF7FEBF9E
:10366000FFF7FEBFFFF7FEBFFFF7FEBFFFF7FEBF8E
:10367000FFF7FEBFFFF7FEBFFFF7FEBFFFF7FEBF7E
:10368000FFF7FEBFFFF7FEBFFFF7FEBFFFF7FEBF6E
:10369000FFF7FEBFFFF7FEBFFFF7FEBFFFF7FEBF5E
:1036A000FFF7FEBFFFF7FEBFFFF7FEBFFFF7FEBF4E
:1036B000FFF7FEBFFFF7FEBFFFF7FEBFFFF7FEBF3E
:1036C000FFF7FEBFFFF7FEBFFFF7FEBFFFF7FEBF2E
:1036D000FFF7FEBFFFF7FEBFFFF7FEBFFFF7FEBF1E
:1036E000FFF7FEBFFFF7FEBFFFF7FEBFFFF7FEBF0E
:1036F000FFF7FEBFFFF7FEBFFFF7FEBFFFF7FEBFFE
:10370000FFF7FEBFFFF7FEBFFFF7FEBFFFF7FEBFED
:10371000FFF7FEBFFFF7FEBFFFF7FEBFFFF7FEBFDD
:10372000FFF7FEBFFFF7FEBFFFF7FEBFFFF7FEBFCD
:10373000FFF7FEBFFFF7FEBFFFF7FEBFFFF7FEBFBD
:10374000FFF7FEBFFFF7FEBFFFF7FEBFFFF7FEBFAD
:10375000FFF7FEBFFFF7FEBFFFF7FEBFFFF7FEBF9D
:10376000FFF7FEBFFFF7FEBFFFF7FEBFFFF7FEBF8D
:10377000FFF7FEBFFFF7FEBFFFF7FEBFFFF7FEBF7D
:10378000FFF7FEBFFFF7FEBFFFF7FEBFFFF7FEBF6D
:10379000FFF7FEBFFFF7FEBFFFF7FEBFFFF7FEBF5D
:1037A000FFF7FEBFFFF7FEBFFFF7FEBFFFF7FEBF4D
:1037B000FFF7FEBFFFF7FEBFFFF7FEBFFFF7FEBF3D
:1037C000FC00FCAAFC000001F9000010FC0002242F
:0237D000F40003
:040000050800362D8C
:00000001FF
