:020000040800F2
:10000000604E0020C94D0008B14D0008B34D0008F6
:10001000B54D0008B74D0008B94D000800000000BC
:10002000000000000000000000000000352D000866
:10003000BB4D000800000000D92C0008B7280008BC
:10004000F54D0008F94D0008FD4D0008014E00086F
:10005000054E0008094E00080D4E0008114E00081C
:10006000154E0008194E00081D4E0008214E0008CC
:10007000254E0008294E00082D4E0008314E00087C
:10008000354E0008394E00083D4E0008414E00082C
:10009000454E0008494E00084D4E0008514E0008DC
:1000A000554E0008BD4D0008594E00085D4E000831
:1000B000614E0008654E0008694E00086D4E00084C
:1000C000714E0008754E0008794E00087D4E0008FC
:1000D000814E0008854E0008894E00088D4E0008AC
:1000E000914E0008954E0008994E00089D4E00085C
:1000F000A14E0008A54E0008A94E0008AD4E00080C
:10010000B14E0008B54E0008B94E0008BD4E0008BB
:10011000C14E0008C54E0008C94E0008CD4E00086B
:10012000D14E0008D54E0008D94E0008DD4E00081B
:10013000E14E0008E54E0008E94E0008ED4E0008CB
:10014000F14E0008F54E0008F94E0008FD4E00087B
:10015000014F0008054F0008094F00080D4F000827
:10016000114F0008154F0008194F00081D4F0008D7
:10017000214F0008254F0008294F00082D4F000887
:10018000314F0008354F0008394F00083D4F000837
:10019000414F0008454F0008494F00084D4F0008E7
:1001A000514F0008554F0008594F00085D4F000897
:1001B000614F0008654F0008694F00086D4F000847
:1001C000714F0008754F00082DE9F14FB0B092460D
:1001D00004910DF142013A9A2B9199464A70002000
:1001E0000AE01AF8011B0498309A904700280490FE
:1001F00000F0B6860D98401C0D909AF8000050B1A2
:100200002528EED1002100220791089209910A9237
:100210000B910C9204E00D9800F0A4BE41F0010196
:100220001AF8010F2028F9D023280CD02B2804D04D
:100230002D2805D0302809D00BE041F00201EFE76E
:1002400041F00401ECE741F00801E9E741F0100159
:10025000E6E72A280FD1D9F8002052F8040BC9F894
:10026000002000280F9003D540420F9041F0040178
:100270000AF1010A14E00F92DFF828380AE00F981B
:10028000984205DA00EB800402EB4402303A0F9208
:100290000AF1010A9AF80020A2F130000A28EED3F0
:1002A0009AF800002E2803D04FF0FF320E9229E07A
:1002B0001AF8010F2A2809D1D9F8000050F8042BA8
:1002C000C9F800000E920AF1010A1BE02D280CBFAC
:1002D0000AF1010A002000220E92DFF8C8470BE065
:1002E00040B90E9AA24205DA02EB820503EB450300
:1002F000303B0E930AF1010A9AF80030A3F1300264
:100300000A2AEDD3ADF84010DFF89C07784400F5D9
:10031000F3609AF8001000F057FF08B11AF8010BCB
:100320008DF842009DF84200682805D19AF8000037
:1003300068280CD1622106E06C2804BF9AF80000FE
:100340006C2804D171218DF842100AF1010A12A81B
:1003500006901AF801BBBBF125012CD01C3900F026
:10036000D081091F022940F2CC81133900F0238586
:10037000093900F0C681891E00F0B885491E00F0D9
:100380006585491E022940F2BC81091F00F05E8587
:10039000491F00F02881491E00F00D85491E00F01C
:1003A000D080C91E0DD0891E00F00585C91E00F041
:1003B000028500F0A6BD25238DF84830012100F00C
:1003C000ABBDD9F8000050F8044BC9F80000002C70
:1003D000059440F0A3802B994878002800F099807C
:1003E0004FF0FF340FF6843000F0FEFE201A40F08C
:1003F000B78500F092BD6D1E40F0A9853096079D2F
:1004000012AF75B1309E17F8012B02A9304600F0EB
:1004100073FE002801D46D1EF5D10028309640F0FF
:100420009F850A9D3020002D8DF804000CDD309E44
:10043000012301AA02A9304600F06EFE002840F018
:100440008F856D1EF4D13096059F089D75B1309E45
:1004500017F8012B02A9304600F04EFE002801D407
:100460006D1EF5D10028309640F07A850B9D302026
:10047000002D8DF804000CDD309E012301AA02A995
:10048000304600F049FE002840F06A856D1EF4D128
:10049000309605980899099D471875B1309E17F850
:1004A000012B02A9304600F027FE002801D46D1E62
:1004B000F5D10028309640F053850C9D3020002D5A
:1004C0008DF804000CDD309E012301AA02A93046FC
:1004D00000F022FE002840F043856D1EF4D13096D6
:1004E0009DF8400041077FF588AE2020002C8DF854
:1004F00004007FF782AE309D012301AA02A928469D
:1005000000F00AFE002840F02B85641EF4D13095DF
:1005100073E60FF66440059000F0FFBC0E9D002DC1
:1005200004D5204600F080FE044607E02A46204617
:1005300000F096FE002814BF041B2C46089400F01F
:10054000ECBCD9F8001051F8040BC9F8001020F0E9
:100550000004002121F0FF3512ABCDE902450593DF
:10056000DDE9022306993C2413B90AB90E9898B123
:1005700002F00F053035641EEEB23A2EA8BF2735C3
:10058000120942EA03721B090D5508BF002A03D065
:1005900005980D19A842EBD308190590C4F13C0247
:1005A0000E98089282420ADABDF84010821A4FF67D
:1005B000EF7001400A92ADF8401000F0AEBC002888
:1005C00040F1AB849DF8400000F01400102840F08A
:1005D000A4840F9B07990A985B1A1B1A9A1A002A7F
:1005E00040F39B84E5E32B99487820B14FF0FF342A
:1005F0000FF65430F8E69DF84200622861D0682872
:1006000017D06A283FD06C2806D0712847D07428AC
:100610002CD07A281DD064E0D9F8001051F8040BD2
:10062000C9F80010002868D14FF0FF340FF63030C1
:10063000DAE6D9F8001051F8040BC9F8001020B917
:100640004FF0FF340FF61830CEE60D99018000F020
:1006500064BCD9F8001051F8040BC9F80010002848
:100660004BD14FF0FF340FF6F820BDE6D9F800105B
:1006700051F8040BC9F8001000283ED14FF0FF34A8
:100680000FF6DC20B0E6D9F8001051F8040BC9F8D9
:10069000001080B94FF0FF340FF6C420A4E6D9F85B
:1006A000001051F8040BC9F8001020B94FF0FF34C6
:1006B0000FF6AC2098E60D9AD317C0E9002300F09E
:1006C0002CBCD9F8001051F8040BC9F8001020B95F
:1006D0004FF0FF340FF6882086E60D99017000F088
:1006E0001CBCD9F8001051F8040BC9F8001020B94F
:1006F0004FF0FF340FF6682076E60D99016000F0A8
:100700000CBCD9F80020D21D22F00702C9F8002045
:10071000D2E900010832C9F80020CDE90201C80F72
:1007200002D007982D210AE0BDF84000810702D5CC
:1007300007982B2103E0C00705D50798202112AAAE
:100740001154401C0790DDE90223079912A8CDE956
:100750002C2308444BF020016129059021AC0BD0DB
:100760000E99002902D506210E9105E001BF4BF03C
:100770002001672901220E92DDE902235900491563
:10078000491C0DD11A030BD0ABF1610503211A2DC1
:10079000089102D20FF6E41110E00FF6E4110DE01B
:1007A00059004915491C0DD11A030BD1ABF1610554
:1007B00003211A2D089119D30FF6CC11032200F052
:1007C0007BFDAAE3DDE90201CDE92E01DDE92E235F
:1007D00023F00047B7F5801F22F000060DD200225B
:1007E000002F08BF002E009203D116E00FF69411DF
:1007F000E4E76A4600F06CFD0FE0DFF8DC08DFF8A4
:10080000DC1800EB17500090DDE92E234FF0FF308D
:100810001940DFF8CC7810403943CDE902014BF0A4
:10082000200061280DD1059830210170821CBBF198
:10083000610F05920CBF7821582141700798801CE8
:100840000790DDE9020120F0000231F0004308BF0B
:10085000002A02D10026002568E14BF02008B8F1FB
:10086000610F40F0B4800E98002847BF212101910C
:10087000401C0190019FDDE92C017F1C0022002318
:10088000DDE9024500F05CFD00998DF8842038BF59
:1008900085F00045091F002F00910DF1850653DDFD
:1008A000204629460022002300F062FD4CD2480079
:1008B000400D00F11C0212D0002A10DD40F2FF733F
:1008C0009A4206DBDFF81C1805F0004001430020C7
:1008D00011E06FF31E5141EA025120460BE024F073
:1008E000000035F0004108BF00280FBF29461C2238
:1008F000294600F055FD04460D4600F0EFFDFF1FB0
:10090000002F804609DD00F007FE02460B46204618
:10091000294600F013FE04460D46F01D0721B8F1EC
:10092000000F0CDD491E5EBF08F00F0200F8012D1C
:100930004FEA2818F3D502E0002200F8012D491EE5
:10094000FAD5C61D002FABDC0DF18500361A0198D3
:100950008642D8BF304600280DF1850430D4B0421D
:1009600006DA0DF185010A5C082AA8BF0F2100DA1A
:100970000021024621AB134400E0401E13F8015948
:10098000521E8D42F9D00F2904D10DF185018B5CE7
:100990005B1C8B54002A04D50099091D21AC401C16
:1009A0000091411E0CD46218ABF13A061378303333
:1009B000DDB23A2DA8BFF318491E02F80139F5D56A
:1009C0000E99002940F1B080421E0E92ACE00099D1
:1009D000DFF8142747F29750414391FBF2F2DDE92B
:1009E0002C45009225F00045D2F1070204DD204697
:1009F000294600F04EFB0BE052420020DFF8EC16D7
:100A000000F047FB02460B462046294600F008FE50
:100A10000446B8F1660F0E9806BF009F0A370627F6
:100A20003F18142FC8BF142730200D468DF88400BE
:100A30000DF18506002F39DD2046294600F014FF10
:100A400001460A4606F1080304200A26B2FBF6F620
:100A500006EB860EA2EB4E02303203F8012C0A227E
:100A6000B6FBF2F202EB820EA6EB4E063036401ECB
:100A700003F8026DE9D1083F002F03F10806D9DD24
:100A8000084600F005FF02460B462046294600F0C6
:100A900055FD0022DFF8583600F008FF04460D46E9
:100AA000CAE700BFCBCCCC0C444300000DF185005D
:100AB000361A0DF1850404E00098401E761E009061
:100AC000641C20783028F7D0B8F1660F02D1009965
:100AD000491C04E0B8F1650F0CBF012100210E98FC
:100AE00008188642B8BF701E00281DD4B04204DA30
:100AF000215C3429C8BF392100DC30210246631E45
:100B00009D1800E0401E15F80169521E8E42F9D072
:100B1000392902D1A15C491CA154002A04D50099AD
:100B2000491C1C46401C00910646009D00F090FFA9
:100B3000406A0778DDF8388030B2002802DC0126F0
:100B40000FF248644BF02000662808BF6D1C16D0D9
:100B5000672846D128B210F1040F48DB404546DA39
:100B60009DF840006D1C010703D430B24045B8BF6A
:100B7000804628B2B8EB000848BF4FF000080FFAD3
:100B800085FBBBF1000F00F3B5800898411C08916C
:100B9000302205990A54B8F1000F03DC9DF840009B
:100BA000010704D50898411C089105990F5418EBCA
:100BB0000B0FB8BFC8F100052DB268420B90A844D6
:100BC00032B29045B8BF4646059B089836B20996A2
:100BD00032462146184400F06FFBA8EB06000C904B
:100BE000D2E0BBF1610F17D14FF0700B19E030B2BA
:100BF000404504DA9DF840100A0758BF8046B8F116
:100C0000010848BF4FF00008BBF1670F14BF4FF059
:100C1000450B4FF0650B04E0BBF1410F08BF4FF0EF
:100C2000500B0898411C0891B8F1000F059914F871
:100C3000012B0A5403DC9DF8400001071AD50898DF
:100C4000411C0891B8F1000F05990F5412DD761E72
:100C500030B280450598089BB8BF464632B221465F
:100C6000184400F029FB089936B271180891A8EBD6
:100C700006000B9005980899084429B2002980F8CD
:100C800000B003D42B224270821C04E02D2242705B
:100C90000D46821C6D4200212CAB28460AE004461A
:100CA0000A2094FBF0F000EB8005A4EB450403F868
:100CB000014B491C00B20028F1DC012906DC4BF095
:100CC0002000652804BF302002F8010B00292CAB5E
:100CD00008D1302002F8010B06E0491E585C303084
:100CE00002F8010B0029F8DC059908980844121A4B
:100CF000099249E030B229B288421CDA0598089B73
:100D000032B22146184400F0D7FA089936B2711869
:100D1000ABEB0606B8F1000F08910B9603DC9DF8CB
:100D20004000020704D5059847540999491C0991C8
:100D3000CDF8308028E00598089B2AB22146184457
:100D400000F0BAFA0898761B5844B8F1000F0890E2
:100D500003DC9DF840100A0703D5411C0891059952
:100D60000F5430B280450598089BB8BF464632B252
:100D700004EB0B01184400F09FFA089836B23018C3
:100D80000890A8EB06000B909DF8400000F01400BE
:100D9000102840F0C280079A08990B988A18099980
:100DA00082180C988A1882180F98824280F2B580B7
:100DB000821A0A92B1E09DF84200622808D06828A1
:100DC0000ED06A2814D06C281FD0712810D01CE0D7
:100DD000D9F8001051F8040BC9F80010C0B21AE09D
:100DE000D9F8001051F8040BC9F8001080B212E0D5
:100DF000D9F80020D21D22F00702C9F80020D2E95C
:100E000000010832C9F8002006E0D9F8001051F8B6
:100E1000040BC9F800100021CDE902019DF8400043
:100E200001075AD5DDE90223002B08BF002A54D060
:100E30004BF02000782850D1079812A930220A548C
:100E4000401C431C079301F800B046E09DF84200A7
:100E5000622808D068280ED06A2814D06C281FD0C9
:100E6000712810D01CE0D9F8001051F8040BC9F813
:100E7000001040B21AE0D9F8001051F8040BC9F87C
:100E8000001000B212E0D9F80020D21D22F00702B3
:100E9000C9F80020D2E900010832C9F8002006E0B4
:100EA000D9F8001051F8040BC9F80010C117CDE9AA
:100EB0000201002902D507982D210AE0BDF8400063
:100EC000810702D507982B2103E0C00705D50798B5
:100ED000202112AA1154401C079012A8079901441E
:100EE000059102A8594600F04FF816E0012007903E
:100EF000D9F8000050F8041BC9F800008DF848101C
:100F00000BE025210122BBF1000F8DF8481007925C
:100F100003D08DF849B0022107910F9A07980A99DA
:100F20000C9C121A0898521A0B99121A0998521A04
:100F3000121A9DF84000141B41073FF560AA2020BB
:100F4000002C8DF804007FF75AAA309E2546012315
:100F500001AA02A9304600F0DFF800283FF44BAAAE
:100F60004FF0FF3031B0BDE8F08F00007072696E55
:100F700074665F733A206261642025732061726732
:100F8000756D656E740000002DE9FC4307466F29FE
:100F90003E6908BF082405D041F02000782814BF1E
:100FA0000A2410243C25D7E90023642918BF6929A5
:100FB0009046994605D1002B03D5D8F1000869EB7E
:100FC0004909B9F1000F08BFB8F1000F0CD1386B17
:100FD00050B9082C39D197F83800010735D53020A1
:100FE0003B2586F83B0030E08DF80010404649462E
:100FF0002246E31700F030FD3032D0B26D1E3A28A1
:10100000019504DB9DF80000A0F151018A1872558A
:10101000404649462246E31700F01EFD80465FEA3F
:10102000010908BFB8F1000F03D0F86871198842B0
:10103000DCD3082C09D197F83800010705D5705D7D
:10104000302802D06D1E30207055C5F13C02BA61C7
:101050007119F960386B824208DA821A3A624FF6E7
:10106000EF70398F01403987BDE8F38300280ED532
:1010700097F8380000F01400102808D17B6B7969CC
:10108000386A5B1A1B1A9A1A002AC8BF3A62BDE86E
:10109000F3832DE9D04306460F4614464FF000086F
:1010A000DFF8509012E0E00707D542464B46304645
:1010B000394600F0FBFB06460F464046494642468D
:1010C0004B4600F0F3FB641080468946002CEAD1C1
:1010D00030463946BDE8D08302FCFFFFFFFF0F809A
:1010E0000000E03F0000F07FA08601000000F03F1C
:1010F00084D797410000244010B503460C461146A2
:10110000A0689847A06020B1E06A401CE06200201F
:1011100010BD4FF0FF3010BDF8B505460E4617461E
:101120001C4600205CB117F8011BB068A847B060EE
:1011300030B1F06A401CF0620020641EF3D1F2BDB1
:101140004FF0FF30F2BD00007072696E74665F731D
:101150003A20256E20646973616C6C6F776564005A
:101160007072696E74663A2062616420256E206137
:101170007267756D656E7400000000006E616E0030
:101180004E414E00696E6600494E4600300030B454
:10119000002513E050F8042BD30744BFA9F1010345
:1011A0009A18091F042942F8045BFAD213468C07E7
:1011B00044BF15809B1CC90748BF1D7050F8041B15
:1011C0000029E7D130BC7047C9B202788A421AB10F
:1011D0001CBF10F8012FF9E718BF00207047026804
:1011E000531C03601170704780B500B906A0054913
:1011F0000B681BB122220021984701E000F0AFFCF0
:10120000222002BD5C4A0020636F6E7374726169B4
:101210006E742068616E646C65723A20626164204D
:101220006D6573736167650000F10103810704D088
:1012300010F8011B820781B1FAD10268A2F10131D5
:10124000914311F0803104BF50F8042FF6E709BA3A
:10125000B1FA81F100EBD100401CC01A70472E009A
:10126000C9B2830706D0521E22D310F8013B99421F
:10127000F7D11FE0083A13D302F1040241EA012139
:1012800041EA014150F8043B121F21BF4B40A3F13A
:10129000013C2CEA030C1CF0803FF3D0C9B2001FC4
:1012A000083210F8013B521E28BF91EA030FF8D80C
:1012B00018BF0120401E70474AB1000011F8013BE1
:1012C000521E00F8013B1CBF11F8013BF8E77047C4
:1012D00010B5144600F002F8226010BDC1F30A53A5
:1012E00043B14A0012F5001F28D2A3F2FE32A1EB4F
:1012F0000251704750EA410C20D001F0004C31EA15
:101300000C01B1FA81F204BFB0FA80F3D2180B3AA3
:10131000B2F120032CBF00FA03F1914041EA0C0125
:101320003EBFC2F1200C20FA0CF319439040524208
:1013300040F2FD33D21A01EB03517047002270478F
:101340004FF4001C1CEB410F94BF1CEB430F09E052
:1013500041EA030C50EA4C0C52EA0C0C03D29942BD
:1013600008BF9042704714BF8B4282427047000012
:101370004FF4001C1CEB410F94BF1CEB430F09E022
:1013800041EA030C50EA4C0C52EA0C0C03D28B429B
:1013900008BF8242704714BF9942904270470000D4
:1013A000124254D440F2FF7C1CEA11530FD0634523
:1013B00031D09B1863453CBF01EB0251704701F0EF
:1013C000004141EA0C510020AFF30080704750EA21
:1013D000410320D001F0004C91EA0C011CD0B1FA7D
:1013E00081F30B3B9A420DD9D21A994051EA0C0174
:1013F000C3F1200C20FA0CFC61449840531C40F2CD
:10140000FF7CD7E7914041EA0C01C2F1200C20FAA1
:101410000CF3194390407047B0FA80F31533202B3A
:10142000E0D3202AEED3203A203B9A4209D9D21A9F
:1014300000FA03F141EA0C010020531C40F2FF7C4A
:10144000B8E700FA02F141EA0C010020704752426D
:1014500040F2FF7C1CEA11530DD06345DBD0B2EBA8
:10146000030C3CBFA1EB025170470CF1010221EAD1
:10147000035141F4801150EA410CCCD001F0004CF2
:10148000352A27DC30B481EA0C01B2F1200309DAF5
:10149000C2F12003044601FA03F5D0402843D140AD
:1014A0009C400CE0C3F12002450020FA03F418BF71
:1014B00044F0010421FA03F091400C43002174F13F
:1014C000004550F1000051EB0C01244230BC7FF488
:1014D0007BAF70476146002076E70000C1F30A53F6
:1014E00040F2FE329B1A14DDD3F120034FEAE17281
:1014F00008DDC90241EA505141F00040D84080184F
:101500005040704703F2E13010B1D24382F0004006
:101510007047002070470000C11768B14840401A6A
:10152000B0FA80F29040D21CC907C2F5846241EA49
:10153000025202EBD02140057047000070B44FF01A
:10154000004591EA030F40F10D836B40841A71EB63
:10155000030603D2001BB141121973414FF4001C62
:101560001CEB410F34BF7CEB430442E00C0DA4EBB9
:101570001356352E4FDC45EAC323DB0A45EAC12169
:10158000C912B6F120050DDD63FA05F6EB4086EAD7
:101590000305124218BF45F00105C01851F10001C2
:1015A0000CD213E062FA06F5F2405540F3415A407E
:1015B000B340F3405A408018594107D349085FEAC5
:1015C00030005FEA350528BF45F0010501F58011BF
:1015D000420875F1004250F1000041EB04514E0009
:1015E00016F5001F70BC38BF70470020090D0905B3
:1015F00070471CEB410F10D252EA43060BD0BCEBF4
:10160000410F05D80C0DAB43661E342EB6DD02E04B
:10161000AB438018594170BC704770BC70470000E4
:10162000F0B540F2FF7581EA030C0CF0004C15EAAE
:1016300011541DBF15EA1357AC42AF42E5E0BC415F
:10164000C1F31301C3F31303801A994143F48013C8
:1016500004D2641E4000494180185941C90241EA40
:101660005051B1FBF3F603FB1611A2FB0675D7EB45
:10167000C020A94102D2761E80185941C90241EA10
:101680005051B1FBF3FE03FB1E11A2FB0E75D7EB0D
:10169000C020A94103D2AEF1010E80185941890240
:1016A00041EA9051760546EA8E2EB1FBF3F603FB34
:1016B0001611A2FB0675D7EB8020A94102D2761E37
:1016C00080185941C90241EA50514EEA060EB1FB59
:1016D000F3F603FB1611A2FB0675D7EBC020A94158
:1016E00002D2761E80185941C90241EA5051B1FB1D
:1016F000F3F703FB1711A2FB0735D3EBC020A94179
:1017000067F100070CBF004247F0010766F3D527D9
:101710004FEA1E31B80814F5806412DDBD0775F17B
:10172000004250EB0E5051EB045111F5801F5CBF8D
:1017300041EA0C01F0BD4CF07F6141F0E041002036
:10174000F0BDBD076D0840EA0E5041F48011D4F1A0
:101750000104B4F120060ADAC4F120060200E040D8
:1017600001FA06F3E1401843B24015430EE0342C71
:1017700013DCC6F1200445EA40056D0820FA06F2A4
:10178000154321FA06F0A1400D43002175F10042F6
:1017900050F1000051EB0C01F0BD00205FEA0C019C
:1017A000F0BDCFB992185B41B3FA83F704BFB2FA28
:1017B00082F6BF190B3FB7F120062FBF02FA06F3DE
:1017C000BB40C7F1200622FA06F638BF3343BA40C1
:1017D0001CB1E419641E33E77F4231F00041B1FAD5
:1017E00081F404BFB0FA80F6A4190B3CB4F12006D2
:1017F0002FBF00FA06F1A140C4F1200620FA06F638
:1018000038BF3143A0403C1B1AE7AC421ABF05EA7F
:101810001357AF4212E050EA41061CBF52EA43069A
:10182000BFE750EA4107304661461CBF41EA055117
:10183000F0BD52EA430C08BFC143F0BD00204FF495
:10184000001616EB410F98BF16EB430F08BF16EBBF
:10185000410F24BFC14305E016EB430F0CBF6146A7
:101860004CEA0551F0BD0000400D491840EA8120C6
:101870000CD2490DA1F58061491C40F0004005DB08
:10188000D1F11F0154BFC840C017704700207047F6
:10189000014648B1B0FA80F18840C91CC1F58461A5
:1018A000090501EBD021400570470000B0B581EA81
:1018B000030C0CF0004C40F2FF7515EA11541DBFEB
:1018C00015EA1357AC42AF4239E0E41923EA455315
:1018D00043F48013C90241F0004141EA505EC7025F
:1018E0001100A7FB020200284FF00000EEFB0120D0
:1018F0004FF00001E3FB072118BF42F0010240183E
:1019000000214941E3FB0E01A4F580640F0302D2DC
:1019100052004041494154F101046CDD470872F125
:10192000004250F1000051EB0451A1F580115CBF61
:1019300041EA0C01B0BD4CEA05510020B0BD05EAFA
:101940001357AC4214BFAF4241E050EA410E1CBFF6
:1019500052EA430E02E061460020B0BD24423C44FE
:101960001BD15FEA070EF6D0090302BF0146002033
:10197000AEF1140EB1FA81F7AEEB070401FA07FEDF
:101980000C37C7F1200100FA07F7C8404EEA000EF5
:1019900023EA455343F48013A2E733F00043B3FA3C
:1019A00083F704BFB2FA82FE77440B3FE41BB7F122
:1019B000200E2FBF02FA0EF3BB40C7F1200E22FA11
:1019C0000EFE38BF43EA0E03BA40641C82E750EAB9
:1019D000410E14BF52EA430E6FF000014FF400179E
:1019E00017EB430F8ABF194617EB410FB5E74CEAD7
:1019F00005510020B0BDD4F10104B4F120070FDA85
:101A0000C4F12007520828BF42F0010210FA07F57E
:101A100001FA07F7E1BF2A43E0403843E1400FE015
:101A2000352C98DCC7F1200452EA400220FA07F274
:101A300018BF42F0010231FA07F0A1400A43002129
:101A400072F1004250F1000051EB0C01B0BD0000FA
:101A5000004870471C000020D3BBD9B1B2F5803FCD
:101A60005BD2022A1ED98C46B1FBF2F102FB11C3F4
:101A70001B0443EA1043B3FBF2FC02FB1C3380B2AD
:101A800040EA0343B3FBF2F002FB103240EA0C40A1
:101A900000237047022A05D98446B0FBF2F002FB0E
:101AA00010C270474AB105D100F0010249085FEA4F
:101AB0003000704700220023704700F009B90B0086
:101AC0000200002100207047F7D300220023704756
:101AD000904271EB030CF2D370B5B1FA81F4B3FA12
:101AE00083F52C1BA340C4F1200532FA05F63343DD
:101AF000A2405FF00046E64002E05B085FEA320287
:101B0000841A71EB030524BF204629467641F4D39D
:101B100002000B003000002170BD70B5B1FA81F4F5
:101B2000B2FA82F5C4F120046419B4F12006DAD3C4
:101B3000B2405FF00044F440002502E052085FEA42
:101B40003303C61A71EB020E24BF3046714664415E
:101B50006D41F3D302000B002000290070BD01206D
:101B600000F0B8B8841A71EB030604D26E40001B73
:101B7000B141121973414FF4001C1CEB410F34BFEB
:101B80007CEB430683E00C0DA4EB1356362E00F3DA
:101B90007C80012E45EAC32341DC43EA525312BF45
:101BA000D20292025B08240545EAC12141EA505164
:101BB000D2EBC020994125D407D1B0FA80F610FAB3
:101BC00006F162D00020203608E0B1FA81F6B1407B
:101BD000C6F1200220FA02F21143B0404FEAF47439
:101BE000B4EB465434F001064FEA74040AD8D6F533
:101BF0000016760D04F00044F04061FA06F2504001
:101C0000F1404840C00A40EA415021F0004128BF5D
:101C10005FEA500550F1000044EBD12135E0DB0ACA
:101C200045EAC121C90AB6F120050EDD42EA0242A9
:101C3000120CC5F1200603FA06F6EB4042EA06054F
:101C40006D42984161F100010DE062FA06F5F24043
:101C5000554063FA06FC82EA0C02F3405A406D429A
:101C6000904161EB030111F4801F05D1641E6205F0
:101C700002D06D004041494121F48011430875F1C3
:101C8000004350F1000041EB045170BC70471CEB65
:101C9000410F15D223F0004352EA43060BD04FEA1E
:101CA0004C0CBCEB410F04D80C0D661E342EB7DD76
:101CB000EBE7801A994150EA410608BF0021E4E7AA
:101CC00008BF1CEB430F28BF6FF00001DDE70000E9
:101CD0007047000080B5AFF30080024A1100182061
:101CE000ABBEFBE726000200F0B585B050260B9D89
:101CF00015B900F022F8FEE70C9C14B900F01DF8AD
:101D0000FEE75C270097009F5C2F02D000F015F8DB
:101D1000FEE7009E25630225002784F8595004AD94
:101D20000397029401950A9E009600F03DF8204624
:101D300000F080F8049805B0F0BD72B686F3118803
:101D4000BFF34F8FBFF36F8F62B670472DE9F84333
:101D50000646174684B088469946B80000F0C4FB92
:101D600005001CD05C2000F0BFFB040014D0002054
:101D7000256384F859000D9A03900C9801924B4604
:101D800000903A4602944146304600F00DF8204655
:101D900000F050F8012004E0284600F031FC4FF03C
:101DA000FF3005B0BDE8F0832DE9F0470A9F81467A
:101DB0000C4615469A46A522386BA90000F072FC25
:101DC0003A6B02EB850107F13405081FC0084FEAA2
:101DD000C00808F0070054B10021625C6A54605CDE
:101DE00010B1491C1029F8D30020E87300E02870D6
:101DF000089E099C372E88BF3726FE62AE61C6F169
:101E00003806E861381D00F077FC07F1180000F093
:101E100073FC3F610020BE6152467F6249462862E2
:101E200087F85800404600F0A5FC386004B12760F0
:101E3000BDE8F0872DE9F04100F054F8E86C142675
:101E4000DFF8F485401CE864A86A28BBAC62E96C42
:101E5000012929D1002706FB07F07F1C404400F030
:101E60003EFC382FF7D305F1740005F1880700F028
:101E700036FC384600F033FC284600F030FC05F113
:101E8000140000F02CFC05F1380000F028FC05F1EE
:101E90007401E9622F6307E0A86D28B9E16AA86AB6
:101EA000C26A914228BFAC62A86E401CA8666064FA
:101EB000E06A696D814238BF68654643211D08EBC1
:101EC000060000F01CFC00F0E3FCA86D40B1A96A1C
:101ED000E26AC86A904203D200F059F800F039F87B
:101EE000BDE8F0810446DFF8705500F0B4BC10B5D1
:101EF0000A46502310B900F085F9FEE712B900F048
:101F000081F9FEE7DFF85045216F11B100F07AF951
:101F1000FEE7216F491C2167236D016852188B422F
:101F200003D28A4203D3026008E08A4201D393427B
:101F3000F9D202600021D01A00F0A0FA00F079F87E
:101F400008B900F001F810BD4FF08050DFF80C1513
:101F50000860BFF34F8FBFF36F8F704780B578B1C4
:101F6000DFF8F424116F11B100F017F8FEE7116FDC
:101F7000491C1167002100F081FA00F05AF808B9F5
:101F8000FFF7E2FF01BD04F1180000F0DEBB4FF0E7
:101F90008051DFF8C8341960704772B6502080F362
:101FA0001188BFF34F8FBFF36F8F62B6704780B554
:101FB00086B00020059003AA049004A905A800F0AB
:101FC000CBFC059A049802920021039A019000919B
:101FD00000230FF20C510FF25D30FFF785FE88B140
:101FE00000F0D0FC502101280ED100F013F8DFF8EA
:101FF000DC044FF0FF31C1660122826500230365D6
:1020000000F0DCFB07B000BD10F1010FFAD100F0C9
:1020100001F8FEE772B681F31188BFF34F8FBFF36B
:102020006F8F62B67047DFF8A404016F491C016727
:10203000704770B5DFF820640024306F002510B9B8
:1020400000F0A0F8FEE700F006FC306F401E30679D
:10205000316F002936D1F06CD0B933E0F168CC682B
:10206000FFF791FF00F0BAF9E06A716DDFF86024C4
:10207000814238BF70651423211D5843104400F07D
:102080003EFBE06AB16ACA6A904224BF012333660C
:1020900030680028E2D10CB100F086F9F46D3CB153
:1020A00000F015F808B101203066641EF8D1F5651E
:1020B000306E38B14FF08051DFF8182401251160DF
:1020C000FFF747FFC3E1DFF80404006D70472DE917
:1020D000F843DFF884730026386F00284BD13C6D3D
:1020E000641C3C650ED1F86A006810B100F04AF833
:1020F000FEE7F86A396BF9623863786E401C7866DF
:1021000000F052F9F86E4FF01408DFF8C4938442DF
:1021100027D319E0281D00F018FBA86A18B105F1B3
:10212000180000F012FBE86A796D814238BF7865CB
:1021300008FB00F0291D484400F0E1FAE86AB96A9A
:10214000CA6A904228BF0126F86A006830B1F96A6D
:10215000C868C56868688442DCD201E04FF0FF308F
:10216000F866B86AC06A08FB00F059F80010022946
:1021700004D3012602E0F96D491CF965386E00B1FF
:1021800001266DE172B6502181F31188BFF34F8FA4
:10219000BFF36F8F62B6704710B5DFF8BC22106FC7
:1021A00010B10121116610BD1066516DDFF82033AA
:1021B00000E0491E14244C43185920B90029F8D1D5
:1021C000FFF7E0FFFEE7181900F1080443685B68B9
:1021D0004360A34204BF5B6843604068C368936286
:1021E000516510BD10B50C4610B9FFF7D6FEFEE7DD
:1021F00000F024F800F090FA20460121BDE81040DC
:1022000000F03CB972B683F31188BFF34F8FBFF370
:102210006F8F62B6704738B50D46144610B9FFF798
:10222000BCFEFEE700F00AF800F069FA0CB14FF0CE
:10223000FF3521462846BDE834401FE1DFF88C22F7
:10224000936A03F11801704738B5C068C46814B9BF
:10225000FFF798FFFEE704F11800DFF8705200F076
:1022600074FA296F41B900F0B9F800F018F838BFD6
:102270006A6500F0FEF802E004F11801284600F05B
:102280003EFA00F0F0F802D20120286632BD0020AC
:1022900032BD1420211D4243981800F030BAE26A82
:1022A000686DDFF82C3290427047DFF820124A6EDA
:1022B0000260096D41607047F8B504460D46502034
:1022C00014B900F028F8FEE715B900F024F8FEE78D
:1022D00000F0C1FADFF8F401016D62682E688B1A14
:1022E00016F1010F0ED0476ED4F800C0674501D03B
:1022F00091420BD2B34207D2F31A2B60416E216098
:10230000006D6060002402E000212960012400F0DB
:10231000BFFA2046F2BD72B680F31188BFF34F8F2B
:10232000BFF36F8F62B670470120DFF8A011086617
:102330007047000070B5404CDFF81C5111E000F010
:102340008AFA286AC668301D00F0FFF9E86C401E62
:10235000E864696B491E696300F09AFA304600F040
:102360000EF8686B0028EAD121680229F9D34FF0F2
:102370008050DFF860211060FFF7EBFDF1E710B54A
:10238000044694F8590040B9206B00F039F9204612
:10239000BDE8104000F034B910BD0128F7D0022884
:1023A000FAD0FFF7FAFDFEE72B49C86A006818B9B2
:1023B0004FF0FF32CA667047C86AC268D36858686F
:1023C000C8667047DFF80411886D08B901207047AE
:1023D000086F08B90220704700207047201D00F0E8
:1023E000B4B938B5044600211CB31B4D5022A86A6D
:1023F000844202D000F022F8FEE7206D10B900F010
:102400001DF8FEE7E26A401EE36C20659A4210D098
:1024100078B9FFF7E3FFE26CDFF8B430E262C2F1B3
:102420003800A061696D914238BF6A65FFF731FFDE
:102430000121084632BD00006C3C002072B682F3D8
:102440001188BFF34F8FBFF36F8F62B6704700F0F4
:102450001FFA284670BD0000B048002004ED00E0DF
:102460003046BDE8F283A86AE26AC16A91427047C9
:1024700000001420211D424398187047F8B5134DF1
:102480000C462F6DA96A0646081D00F05EF916F18C
:10249000010F05D124B1A86A011D05F138001BE028
:1024A000A86AF619BE424660A86A05D2011D286BCB
:1024B000BDE8F44000F030B9011DE86A00F02CF9E5
:1024C000E86E864238BFEE66F1BD0000B0480020DD
:1024D0006C3C002004ED00E0BDE8F44000F00FB9D2
:1024E00049444C45000000002DE9F84304466C4F78
:1024F000FFF799FDB8684FF00009002508BB07F108
:10250000180313F0070F07F118014FF470500A4633
:1025100005D0CA1DD208D200C2F570500818801824
:102520000838C008C0003A60811A7D60B860456014
:1025300005605160106050683861F8604FF00040ED
:10254000786179694FF050080C4247D1002C45D092
:10255000083414F0070F1FBF04F1080004F007044B
:10256000041B14F0070F02D000F041F8FEE7002C26
:1025700034D0F868A04231D339463E6801E0314694
:1025800006467268A24202D230680028F7D1B868C5
:10259000864223D00A6833680B6002F1080972682A
:1025A000121B112A0CD3311911F0070002D000F0D0
:1025B0001EF8FEE7301D02510846746000F04CF82A
:1025C0003A697168F868401A9042F86038BF38611B
:1025D000786901437160356009F00705FFF729FD4F
:1025E00015B100F004F8FEE74846BDE8F28372B684
:1025F00088F31188BFF34F8FBFF36F8F62B67047B8
:10260000002800D1704738B5A0F10804244D616856
:102610006A695023114202D100F015F8FEE72068E4
:1026200010B100F010F8FEE791436160FFF7FBFC8A
:10263000E968606841182046E96000F00DF8BDE8DF
:102640003140FFF7F6BC72B683F31188BFF34F8FAA
:10265000BFF36F8F62B67047114930B50A4600E08C
:102660001A4613688342FBD35368D418844203D1BB
:102670004068C3181046536043681468C518A542E3
:1026800008D189688C4204D06168CB184360246803
:1026900000E00C468242046018BF106030BD0000AC
:1026A0005400002062F30F2262F31F4200B500BF06
:1026B000130096469446103928BFA0E80C50FAD86B
:1026C0005FEA417C28BF0CC048BF40F8042BC90713
:1026D00028BF20F8022B48BF00F8012B00BD4FF0A7
:1026E000FF3200F10801826000F10803416000221E
:1026F000C36001610260704700210161704710B53D
:1027000042684A6093688B60946861609160086178
:102710000168491C016010BD30B50A6812F1010F53
:1027200008BF036907D000F1080300E023465C6896
:102730002568AA42FAD25A684A6091608B60596053
:1027400008610168491C016030BD10B5436801692A
:1027500082689A608268446854604B68834204BF10
:1027600082684A60002303610868401E08600868A8
:1027700010BD00004908490010B5A0F120034FF03A
:10278000807499610FF215011A606FF00202DC612A
:10279000596140F8242D203810BD00005D495020BB
:1027A0004A6812F1010F72B680F31188BFF34F8FA0
:1027B000BFF36F8F62B600D0FEE7FEE73EB5564925
:1027C000FF230A78019207220B700C788DF80040E5
:1027D0009DF800004F4CA26000F05000207006E011
:1027E000401EA0609DF8000040008DF80000A06829
:1027F0009DF800201306F3D4C0F10705042D02D084
:1028000000F01FF8FEE7000200F4E060A06001980D
:1028100008704248016841F470010160026842F0AA
:102820007042026000F084F80020606000F0A0FABE
:102830003B48016841F04041016000F089FA002006
:102840003EBD72B6502080F31188BFF34F8FBFF3A7
:102850006F8F62B6704772B6502080F31188BFF355
:102860004F8FBFF36F8F62B62A494A68521C012A04
:102870004A600CD12B490A68130608D072B680F35F
:102880001188BFF34F8FBFF36F8F62B6FEE77047BB
:102890002049486848B972B6502080F31188BFF3C8
:1028A0004F8FBFF36F8F62B6FEE7401E486008BFD0
:1028B00080F31188704780B5FFF7C3FFFFF707FC6F
:1028C00018B14FF0805017490860002282F3118838
:1028D00001BD000010B5EFF30580502110280D4A0E
:1028E0000AD3114B185C1478A04205D272B681F35A
:1028F0001188FFF7AAFFFEE790680C4A136803F4FB
:10290000E063984205D272B681F31188FFF79DFF0C
:10291000FEE710BD0000002000E400E020ED00E034
:1029200034EF00E004ED00E0F0E300E00CED00E047
:1029300030B5074800210160064B81601C684FF4E8
:102940007A750721B4FBF5F56D1E4560016030BD59
:1029500010E000E018000020084B036003F15C0069
:102960000860802111607047054B036003F15C0033
:1029700008604FF480711160704700002845002006
:10298000CC40002010B586B0DFF8344300F070F979
:10299000A068D0B1002204A9059205A8049203AA58
:1029A000FFF7E2FF0222059800920499039A029031
:1029B000019100230FF210310FF26500FFF794F937
:1029C000E06010B1012006B010BD00F02DF9FEE767
:1029D000F8B5044684B01E46002014B900F024F96E
:1029E000FEE7DFF8DC72BD68BDB1062900910192F7
:1029F00002940CDAFFF7E6FC0228B868694607BFC4
:102A00000A9A00230023002200F040FA05E0002388
:102A100032466946284600F0D0FA05B0F0BD000005
:102A2000F8B586B0DFF898522968086810B9012413
:102A3000002602E0C86800240668FFF7F4FA01A83F
:102A400000F0B5F807460198002841D154BBB742C1
:102A50002DD3FFF7EEFA2868C168CC68201DFFF778
:102A600074FE94F82800410717D5A16933463A4609
:102A70002046891900F0E2F840B1002000230090C0
:102A8000324600212046FFF7A3FF18B1216A2046F5
:102A9000884727E000F0C8F8FEE700F0FE0084F861
:102AA0002800F3E7686801684C1EA441E40FA86899
:102AB0002246F11B00F00CFCFFF7BBFA90B94FF077
:102AC000805080490860BFF34F8FBFF36F8F09E0DC
:102AD000FFF7AFFA06E094F8280081073BD42046C0
:102AE000FFF78EFDA868002202A900F0C0FA0028B6
:102AF0009AD00298002803D505990498039A904724
:102B000002980028EED4049C606910B1201DFFF7E4
:102B10001CFE01A800F04BF802990929E2D8DFE871
:102B200001F02121211A070621211A07DAE7D2E74D
:102B300094F8282042F0010284F828200399A1612A
:102B400031B1034602460918204600F077F8C9E77C
:102B500000F06AF8FEE794F8280000F0FE0084F820
:102B60002800BFE794F828100246A06941F001014F
:102B700084F8281003990B464118204600F05EF8AF
:102B80000028AFD0216A2046884794F828004207E1
:102B9000A8D50021039A0091A0690023821820463D
:102BA000FFF716FF00289DD100F03EF8FEE72DE963
:102BB000FC410646424DFFF786FA044628698442E6
:102BC0000BD30021316020462C61BDE8F68178608E
:102BD000391D3F612868FFF79FFD29680868F0B13B
:102BE000C868C768D0F80080381DFFF7AEFD396AA5
:102BF0003846884797F828004207EED5B869404420
:102C00008045E4D30020002300904246002138464E
:102C1000FFF7DEFE0028E0D100F006F8FEE7686866
:102C2000696028600121CDE772B6502080F31188D9
:102C3000BFF34F8FBFF36F8F62B6704738B5002474
:102C40008A4241601E4D006106D3D21A83699A42BE
:102C500006D2011D686807E09A4203D2994201D367
:102C6000012403E0011D2868FFF756FD204632BD10
:102C70001CB5FFF7F0FD124CA068E0B904F1140098
:102C8000FFF72DFD04F12800FFF729FD04F11400E2
:102C900004F1280100222060616004F13C030092ED
:102CA00004F18C0210210A2000F0A9F8A06010B1F4
:102CB00007A100F0F8FABDE81340FFF7E9BD0000F6
:102CC0008447002004ED00E0546D722053766300C9
:102CD000546D725100000000EFF30980BFF36F8F55
:102CE000274B1A681EF0100F08BF20ED108A20E94C
:102CF000F04F106009B44FF0500072B680F31188A5
:102D0000BFF34F8FBFF36F8F62B6FFF745FA4FF0F7
:102D1000000080F3118809BC19680868B0E8F04F1A
:102D20001EF0100F08BFB0EC108A80F30988BFF3C3
:102D30006F8F7047124B19680868B0E8F04F80F346
:102D40000988BFF36F8F4FF0000080F31188704740
:102D50000C480068006880F308884FF0000080F39A
:102D6000148862B661B6BFF34F8FBFF36F8F00DF79
:102D7000DFF81400016841F4700101607047000041
:102D8000D848002008ED00E088ED00E070B50400B0
:102D90000D4602D100F070F8FEE7FFF75CFD206CF5
:102DA000E16B2268002600FB01F3491E48434FF007
:102DB000FF311344A3601044A663E06004F14400B3
:102DC00062600170417075B92069A0B104F1100012
:102DD000FFF73AFA78B14FF08050DFF8EC14086052
:102DE00000F0E6F807E004F11000FFF778FC04F1CA
:102DF0002400FFF774FCFFF74BFD012070BD7CB58C
:102E00001C46502310B900F01FF8FEE714B900F07B
:102E10001BF8FEE71AB119B900F016F8FEE769B918
:102E20000093009E502E0CD1069B009D012684F835
:102E30004660009400F011F8204676BD00F004F8DA
:102E4000FEE700F001F8FEE772B683F31188BFF3E6
:102E50004F8FBFF36F8F62B6704738B51C46049D25
:102E600001B92A462A60E863284629640121FFF750
:102E70008DFF85F84C4031BD72B6502080F311882B
:102E8000BFF34F8FBFF36F8F62B670472DE9F647E0
:102E900082B004461E46502714B900F0D3F8FEE76E
:102EA0005FEA010A01D1206C60B9022E02D1E06B09
:102EB00001280AD1FFF786FA50B9039840B100F013
:102EC000C1F8FEE700F0BEF8FEE700F0BBF8FEE751
:102ED0002746002400F03EF92DE00398002848D052
:102EE0000CB900F054F9FFF7D3FCFFF79CF8FFF79B
:102EF000B2FC07F1440000F040F904BF0022027068
:102F000000F040F904BF00224270FFF7C1FC00F05E
:102F100049F8002840D1FFF79EFCB86BF96B884256
:102F200014BF00250125FFF7B3FC35BB384600F080
:102F30007BF9FFF77EF8FFF78EFCB86BF96B8842E0
:102F400001D3022EC9D132465146384600F025F948
:102F5000796A29B107F12400FFF776F908B902E090
:102F600008B100F023F8FFF793FC012004B0BDE89E
:102F7000F087FFF78DFC0020F8E7039907F11000B8
:102F8000FFF730F9384600F04FF9FFF752F8002804
:102F9000D1D100F00BF8CEE7384600F045F9FFF745
:102FA00048F8E8E703A96846FFF786B9C8F8009033
:102FB000BFF34F8FBFF36F8F70472DE9F84304467F
:102FC000884615461E46502714B900F03BF8FEE728
:102FD000B8F1000F01D1206C20BB022E02D1E06BB2
:102FE000012822D1FFF776FCEFF3118900F033F8C6
:102FF00001D3022E21D194F9457032464146204634
:1030000000F0CBF817F1010F12D1606A98B104F10A
:103010002400FFF719F9002818BF002D0BD001205C
:10302000286008E000F00EF8FEE700F00BF8FEE77D
:103030007F1C84F84570012000E0002089F311888E
:10304000BDE8F28372B687F31188BFF34F8FBFF3E9
:103050006F8F62B6704772B687F31188BFF34F8FD8
:10306000BFF36F8F62B6A06BE16B884270472DE9AA
:10307000F74306460F460024502516B900F06FF8B6
:10308000FEE70FB9306C38B9FFF79CF958B90298D0
:1030900048B100F064F8FEE700F061F8FEE700F0E8
:1030A0007AF8FEF7C6FFFFF7D6FBB56B00F052F8D3
:1030B0002DB90298B8B9FFF7EBFB002011E03946B3
:1030C000304600F09EF86D1EB563306930B106F1F0
:1030D0001000FFF7B9F808B1FFF768FFFFF7D8FB5A
:1030E0000120BDE8FE830CB900F051F8FFF7D0FBDA
:1030F000FEF799FFFFF7AFFB06F14400415711F1CE
:10310000010F04BF0022027000F03CF804BF00224F
:103110004270FFF7BDFB02A9FFF745FF00283046CC
:103120000ED100F0B5F80028B9D000F021F800F079
:1031300032F8FEF77EFF0028B5D1FFF737FFB2E780
:1031400000F072F8FEF775FF304600F0A1F8002895
:10315000A9D0B2E7DFF870814FF08059704772B69E
:1031600085F31188BFF34F8FBFF36F8F62B670473F
:10317000029906F12400FFF735B890F9001011F11B
:10318000010F704790F9011011F1010F7047684667
:103190000124FFF78AB8304646E0F8B506461546E2
:1031A000B46B326C002742B9316831BBB068FFF7AD
:1031B00018F900210746B1601FE065B97068FEF795
:1031C0007BF8B2687068316C08449042706014D328
:1031D0003068706011E0F068FEF76EF8306CF168EE
:1031E00040420144F1603268914202D2B36818440F
:1031F000F060022D01D104B1641E641C3846B46332
:10320000F2BD38B5026C0B466AB18468C1681144DE
:10321000C160A14224BF0568C560C1681846BDE809
:103220003840FEF749B831BDF8B5054605F144040C
:10323000FFF711FB94F9016007E005F12400FFF7A7
:1032400003F808B1FFF770F8761E70B2012802DBB0
:10325000686A0028F1D14FF0FF366670FFF718FB5F
:10326000FFF7F9FA94F9007007E005F11000FEF796
:10327000EBFF08B1FFF758F87F1E78B2012802DB98
:1032800028690028F1D12670BDE8F140FFF700BBA6
:1032900010B50446FFF7DFFAA06B441EA441FFF708
:1032A000F7FAE00F10BD10B50023084C54F8332096
:1032B0001AB15B1C082BF9D310BD44F8331004EB92
:1032C000C301486010BD000004ED00E01C4A00206E
:1032D000F8B504460D46164604F13807FFF7BBFA69
:1032E00097F90C0010F1010F04BF0021397397F911
:1032F0000D0010F1010F04BF00217973FFF7C8FA28
:10330000386828B93246294604F12400FEF783FFC5
:103310002046BDE8F24087E738B5040009D004F143
:103320007405696809B900F01BF800F01EF801285F
:1033300001D1012032BD606A08B100F027F800F029
:1033400007F822F02A02826000F019F800F07FB836
:103350002068416821F4904141602068826870478C
:1033600000202870204600F08CBA24216960206873
:103370000268520852000260204600F06BB82068D4
:10338000016841F00101016020467047204600F0CD
:1033900071B92DE9FC47054605F17404606888465B
:1033A0001746994620284DD1B8F1000F14BF002FC1
:1033B000012048D02078012844D005F15006012191
:1033C00021700022E2602120606000F0B9FA3780AD
:1033D00082467780A968B1F5805F04BF286900281C
:1033E0000EBF4746404600270021804621700FE06F
:1033F00018F8012B826208E0B8F1000F2868F7D1B5
:1034000037F8021BC1F3080181627288511E718076
:103410007088CDF800905346002807D00022802104
:10342000284600F0ACF90028E6D005E00022402153
:10343000284600F0A4F908B1032004E020206060D1
:10344000002000E00220BDE8F68720215160BDE8A1
:10345000324073E170B504467B48236800251E683E
:10346000A1682269064060690E43E169164306437C
:103470000E431E605A68E06822F4405202435A60CC
:103480009A68A169206A22F430620A4302436F48B5
:103490009A606F4A934235D1016801F00301032914
:1034A00003D8DFE801F07D4C3D5B1021E3694FF666
:1034B000F07668484FF40042B3F5004F40F09C802E
:1034C00059B1012900F0908002290AD0042900F0A6
:1034D0008E80082900F08E80B0E000F077FC002894
:1034E0000FD061684A0802EB4002B2FBF1F0A0F194
:1034F0001001B142F0D20640C0F3420006432068FA
:10350000C6609CE054498B420CD1026812F00C0258
:1035100068D0042A13D0082A02D00C2A1ED0C4E78F
:103520000221C3E74D498B420BD1006810F03000F7
:1035300058D0102803D02028F2D03028EEE70421FC
:10354000B4E747498B420BD1006810F0C00049D066
:103550004028F4D08028E3D0C028A6D10821A5E7D0
:1035600040498B420CD1006810F440703AD0B0F55D
:10357000807FE4D0B0F5007FD2D0B0F5407FCDE7BA
:10358000394A93420ED1016811F4406108D0B1F577
:10359000806FD4D0B1F5006FC2D0B1F5406FBDE7F8
:1035A000012183E7314A93420CD1006810F4405066
:1035B00018D0B0F5805FC2D0B0F5005FB0D0B0F5E4
:1035C000405FABE72A498B42C7D1026812F4404200
:1035D00008D0B2F5804FB2D0B2F5004FA0D0B2F50E
:1035E000404F9BE7002161E700F0F8FB77E700F030
:1035F000C7FB74E7104674E741B1012916D00229D0
:1036000007D0042915D0082916D017E000F0DEFBFA
:10361000A8B1616800EB5100B0FBF1F0A0F110011E
:10362000B1420BD2226880B2D06008E000F0D6FB35
:10363000EEE700F0A5FBEBE71046EAE701250020E6
:103640006066A066284670BDF369FFEF90380240BF
:10365000001001400024F4000044004000480040F5
:10366000004C004000500040001401400078004031
:10367000007C004010B590F82410CA0706D50268F7
:103680005368816A23F400330B43536090F824207D
:10369000910706D502685368C16A23F480330B434F
:1036A000536090F82420510706D502685368016BD7
:1036B00023F480230B43536090F82420110706D590
:1036C00002685368416B23F400430B43536090F846
:1036D0002420D10606D502689368816B23F48053B9
:1036E0000B43936090F82420910606D502689368F6
:1036F000C16B23F400530B43936090F824205106D0
:1037000010D502685368016C23F480130B43536097
:10371000036CB3F5801F05D15468416C24F4C004D8
:103720000C43546090F82420110606D501684A68BD
:10373000806C22F4002202434A6010BD7CB504462E
:1037400004F174050020E86000F0FAF821680346EF
:103750000A6810070BD56FF07E46002200964FF4E2
:103760000011204600F00BF808B1032076BD2020A0
:1037700000226860A86000202266287076BD2DE9CE
:10378000F04105460E4690461F46069C2868C169D2
:103790003140B1420CBF01200020404535D114F129
:1037A000010FF3D000F0CCF8C01B844200D37CB9E9
:1037B00000F02EF800F044F8FAD100F02FF8FCD118
:1037C00005F17400202141600023816003701AE03C
:1037D000286801684A07D9D5C3691905D6D54FF4B9
:1037E0000062026200F014F8034600F025F8F9D1F7
:1037F00000F014F8FCD105F17400202141608160D3
:10380000C16000210170032000E00020BDE8F081CC
:10381000286850E8001F21F4D0717047286800F133
:10382000080151E8001F490800F10803490043E876
:10383000001000287047134643E800100028704726
:10384000024642E8001000287047000082B0374866
:10385000016841F080510160026802F080520092DC
:103860000099426842F4804242604068002200F4BD
:103870008040009000996FF0010002B00F2100F02D
:1038800003BB18B5A7B0044614220021684600F017
:103890002DFB8422002106A800F028FB2168244A81
:1038A000914240D140230024069306A8179400F0CB
:1038B00027FB08B100F07CFE1E48416941F0100171
:1038C0004161426902F0100205920599036843F0D4
:1038D00002030360026802F0020205920599036880
:1038E00043F00103036002688023134802F00102E1
:1038F0000592059902220093019207210322049167
:1039000002946946039200F07BFE4FF4007102229C
:10391000009103210192072203916946029407480E
:10392000049200F06DFE28B010BD00004038024047
:103930000010014030380240000402400000024004
:1039400001484068704700BF0C0000202DE9FC4191
:1039500004460025002C16D02078DFF8CC64C1077F
:1039600013D5B26802F00C02042A07D0B06800F048
:103970000C0008283DD1716848023AD5326891039D
:1039800003D56068002800F06F8121788A0719D577
:10399000B06810F00C0F07D0B16801F00C010829D5
:1039A00062D1706841025FD43268900703D5E16844
:1039B000012940F059813068216920F0F80040EA7F
:1039C000C10030602278130779D5606900286DD076
:1039D000716F41F001017167FFF7B2FF0746706F29
:1039E000810773D4FFF7ACFFC01B0228F7D903206F
:1039F0003DE16068B0F5803F0FD038B9316821F4FF
:103A000080313160306820F4802009E0B0F5A02FCB
:103A100008D1316841F480213160306840F4803051
:103A2000306007E0326822F480323260316821F47D
:103A300080213160606858B1FFF782FF0746316826
:103A40008803A2D4FFF77CFFC01B6528F7D3CEE71D
:103A5000FFF776FF07463068810396D5FFF770FFC2
:103A6000C01B6528F7D3C2E7E06878B1316841F040
:103A700001013160FFF764FF0746306881079AD47F
:103A8000FFF75EFFC01B0228F7D9B0E73068400897
:103A900040003060FFF754FF07463168880791D532
:103AA000FFF74EFFC01B0228F7D9A0E7706F400850
:103AB00040007067FFF744FF0746706F810705D528
:103AC000FFF73EFFC01B0228F7D990E72078410797
:103AD00061D5326CD00009D4316C012541F08051A0
:103AE0003164306C00F0805000900099DFF848732A
:103AF0003868C10510D43A6842F480723A60FFF722
:103B00001FFF80463868C10506D4FFF719FFA0EBF8
:103B100008006528F6D36AE7A068012804D1306F51
:103B200040F00100306713E008B9306F09E0052864
:103B3000306F06D140F004003067316F41F0010171
:103B400005E0400840003067316F21F00401316723
:103B5000A06841F2893760B1FFF7F2FE8046306F0E
:103B6000810713D4FFF7ECFEA0EB0800B842F6D3B0
:103B70003DE7FFF7E5FE8046306F810706D5FFF78A
:103B8000DFFEA0EB0800B842F6D330E71DB1306C81
:103B900020F080503064A069002867D0B16801F03F
:103BA0000C0108293ED00228306820F08070306077
:103BB0002CD1FFF7C5FE05463168880105D5FFF712
:103BC000BFFE401B0228F7D911E7E069216AA36A0A
:103BD000626A0843E16A40EA82105B085B1E40EAC1
:103BE000034040EA016040F000507060306840F0EF
:103BF00080703060FFF7A4FE04463168880135D438
:103C0000FFF79EFE001B0228F7D9F0E6FFF798FEAB
:103C100004463168880129D5FFF792FE001B02286F
:103C2000F7D9E4E6012871681ED0E26901F480004A
:103C3000904202BF01F03F03206A834201BF47F672
:103C4000C0720A40636AB2EB831F0DD1A26A01F40D
:103C500040305208521EB0EB024F02BF01F07061BB
:103C6000E06AB1EB006F01D0012000E00020BDE868
:103C7000F6812DE9F0410400884651D06F4E30683E
:103C800000F00F00404502D200F070F848D12068E3
:103C9000654D810712D5400703D5A96841F4E0516D
:103CA000A9602078010703D5AA6842F46042AA609F
:103CB000A968A06821F0F0010143A9602178CA0732
:103CC00026D56068012802D129688A0303E002280A
:103CD00003D129688A0103D422E02B6899071FD5F4
:103CE000AA68920840EA8200A860FFF729FE07460A
:103CF000A868616800F00C00B0EB810F08D0FFF7F6
:103D00001FFEC01B41F289329042F1D303202BE009
:103D1000306800F00F00804504D200F027F801D091
:103D2000012021E02078410705D5AA68E06822F447
:103D3000E0520243AA6021780A0706D5A8682169E3
:103D400020F4604040EAC100A86000F019F8AA68B9
:103D50003B49364BC2F30312895CC84018603448B3
:103D6000006800F057FD0020BDE8F08131680909C6
:103D700048EA01113160326802F00F024245704793
:103D800030B5314C606800F00C00042802D00828DF
:103D900002D019E02D4830BD002322682068256834
:103DA0004102C5F3881002F03F024CBF2749214968
:103DB000A1FB0001FDF750FE2168C1F30141491C40
:103DC0004900B0FBF1F030BD1A4830BD17481D4A1C
:103DD000006813681E49C3F3822206E01348194A9B
:103DE000006813681A49C3F34232895CC8407047BF
:103DF00010B50F220260134A136803F003034360F7
:103E0000146804F0F0048460136803F4E053C360A2
:103E10001268D20802F4E05202610848036803F015
:103E20000F030B6010BD0000003802401800002096
:103E3000140000200024F40000700040003C024008
:103E40006C4D0008083802400438024040787D017B
:103E5000E44D00080901020002D41F488154704754
:103E60001E4B02F00F021A4402F8041C70471C4B50
:103E70004FF6FF021968000200F4E06011400843A9
:103E8000184908431860704770B5154B1C68C4F397
:103E900002230124C3F10705052D2EBF0F2504FAC7
:103EA00005F56D1E1E1D072E34BF0023DB1E2940A5
:103EB000994004FA03F35B1E1A401143BDE87040B9
:103EC000C8E7010007D4012200F01F018A40064B19
:103ED000400943F82020704700E400E018ED00E0BE
:103EE0000CED00E00000FA0500E100E010B504462A
:103EF00010460A460146204600F0C8FC204610BD88
:103F00002DE9FC47064600253078A846DFF84074C6
:103F1000C1070AD5BA6822F40002BA60BB68716BA7
:103F20000B43BB60706B00B901253068DFF8244497
:103F300001030ED5A268F06B22F440120243A26086
:103F4000F06BB0F5801F08BF012502D008B94FF013
:103F500001083068C1020ED5A268306C22F440021C
:103F60000243A260306CB0F5800F08BF012502D07B
:103F700008B94FF001083068C10148BF012580062B
:103F80005ED5396CDFF8D09341F080513964386CDC
:103F900000F0805000900099D9F8000040F4807043
:103FA000C9F80000FFF7CCFC8246D9F80010C8051C
:103FB00007D4FFF7C5FCA0EB0A006528F5D3032062
:103FC000B0E1386F10F440701EBF316B01F44071E6
:103FD00088421DD0386F396F41F4803139673A6FAC
:103FE00020F4407022F480323A673867386FC10796
:103FF0000ED5FFF7A5FC8146386F810708D4FFF77F
:104000009FFCA0EB090041F289329042F4D3D6E73D
:10401000316B01F44070B0F5407F07D1BA68DFF82A
:104020003C03014022F4F812114302E0B96821F484
:10403000F811B960386F316BC1F30B010843386771
:104040003078C10607D5A26822F08072A260A1680C
:10405000B06B0143A1603268510405D5E368706E0E
:1040600023F440330343E36031680A0405D5E36871
:10407000B06E23F440230343E3603168CA0305D5DF
:10408000E368F06E23F440130343E36031688A036E
:1040900005D5E368306F23F440030343E3603178D0
:1040A0004A0605D5E368706C9B0840EA8303E36029
:1040B00031780A0605D5E368B06C23F00C0303439E
:1040C000E3603168CA0505D5E368F06C23F030037E
:1040D0000343E36031688A0505D5E368306D23F05A
:1040E000C0030343E36031684A0505D5E368706D9A
:1040F00023F440730343E36031680A0505D5E368A0
:10410000B06D23F440630343E3603168CA0405D50E
:10411000E368F06D23F440530343E36031688A049D
:1041200005D5E368306E23F440430343E360316810
:104130004A0205D5E368B06F23F080630343E36070
:1041400031688A020BD5E368F06F23F00063034304
:10415000E360F16FB1F1006F08BF4FF00108306804
:10416000010748BF4FF00108400305D5E168706FB3
:1041700021F040710143E16031680A0206D5E3682D
:10418000D6F8800023F080530343E36015B931680B
:10419000880166D53A6822F080623A60FFF7D0FB6A
:1041A00005463868010105D5FFF7CAFB401B6528A5
:1041B000F7D304E73178CA070FD5706B68B9206868
:1041C0002168726800F4403040EA821001F07061AA
:1041D0000843B16840EA017020603068020303D5EB
:1041E000F16BB1F5801F05D0C00211D5316CB1F56E
:1041F000800F0DD1206821687268F36800F09EF886
:104200002060A068716A4009491E41EA4010A06020
:104210003068C10106D5206821683369726800F0F2
:1042200083F82060306881010BD530697268F168CD
:10423000000440EA8210B26840EA016040EA02707D
:104240002060386840F080603860FFF779FB0546F1
:104250003968080105D4FFF773FB401B6528F7D3C5
:10426000ADE6B8F1000F5CD0386820F080503860BF
:10427000FFF766FB05463968880005D5FFF760FB48
:10428000401B6528F7D39AE631680A0301D5F06B25
:1042900018B1C90210D5306C70B960686168726974
:1042A000B36900F04BF86060A068B16A20F4F85080
:1042B000491E40EA0120A060306881020AD5F26FF1
:1042C000B2F1006F06D160686168336A726900F00C
:1042D0002BF860603078010713D5606861687269F7
:1042E00001F4403141EA821100F070600843F16945
:1042F00040EA01706060A268F06A22F44032024332
:10430000A260396841F080513960FFF719FB04461B
:104310003868810005D4FFF713FB001B6528F7D32D
:104320004DE60020BDE8F6871B0443EA821300F047
:10433000706001F0E04118430843704700F44030DA
:1043400040EA821001F0E04140EA03600843704710
:10435000003802408438024000700040FFFCFF0F2C
:1043600080B590B002460B4692A1684600F098FADC
:1043700082B24FF0FF3369468348FFF70AF811B065
:1043800000BD00002DE910408EA4FDF79CFE014603
:104390002046FFF7E5FF4FF4FA70FDF7DFFDF4E785
:1043A0001CB5FDF790FE00908BA4FDF78CFE014636
:1043B0002046FFF7D5FF4FF47A716846FDF797FD69
:1043C000F3E7000038B586B0704D00F089FA00F0D0
:1043D00080F81422002101A86D4CFFF787FD6D487D
:1043E000016841F002010160026802F0020200F07F
:1043F00065F843F008030360026802F0080200F069
:104400005DF843F480730360026802F4807200F088
:1044100055F843F001030360026802F0010200F066
:104420004DF8002243F080030360006800F0800034
:10443000009000992846102100F0CDF900220221B9
:10444000204600F0C8F9102100F03CF828460493FB
:1044500000F0D6F8022100F035F82046049300243D
:1044600000F0CEF84FF4E1324748426000234A4959
:1044700083610C2201608360C46003614261C36197
:1044800003624362FEF748FF08B100F091F800F0C4
:104490000EF800BF56A14148FDF758FC00F007F8A0
:1044A00055A13F48FDF752FCFDF781FDFEE70121D4
:1044B0000194009100234FF480727047009200999C
:1044C00003687047012201910023029201A903931E
:1044D000704780B592B03022002106A8FFF706FD94
:1044E0001422002101A8FFF701FD2E484FF480336C
:1044F000016841F080510160006800F08050009038
:1045000000992948026842F4404202600068012292
:1045100000F440400090009906924FF4800202217E
:104520000D920C9119214FF4D8720E910F92022125
:1045300009220793109106A81192FFF707FA08B114
:1045400000F036F800F0D8F908B172B6FEE70F2196
:10455000022201914FF4A0510292002304914FF4E2
:10456000805203930721059201A8FFF782FB08B14F
:1045700072B6FEE713B000BD00680C49884208BF60
:1045800000F0F4B9704700004C490020000C0240D4
:1045900000200240303802400010014085430008EE
:1045A000A143000840380240007000400000014074
:1045B00072B6FEE72573205469636B3A20256C754B
:1045C0000D0A00005461736B312028765461736BBF
:1045D00044656C61792900005461736B3220287640
:1045E0005461736B44656C6179556E74696C290014
:1045F0005461736B310000005461736B3200000032
:104600002DE9F84F0D460026DFF8D411DFF8D4214C
:104610000F2304462F680120B04000EA07088045B8
:1046200040F0D3804FEA460C032707FA0CF76FEAF5
:10463000070E6F6807F00309B9F1010F1CBF07F0FF
:104640000307022F12D1A768D5F80C900EEA0707CE
:1046500009FA0CF949EA0707A760676827EA00002A
:104660006F68C7F30017B740384360602F79B00018
:1046700007F00307032F22D0E768D5F808900EEA69
:10468000070709FA0CF949EA0707E7602F7907F0ED
:104690000307022F13D14FEAD60904EB890700F074
:1046A0001C0903FA09FBD7F820A02AEA0B0AD5F85F
:1046B00010B00BFA09F949EA0A09C7F820902768EF
:1046C0000EEA070E2F7907F0030707FA0CF747EAFF
:1046D0000E0727606F6817F4403F76D017684FEADF
:1046E000960C00F00C0003FA00FE47F480471760B8
:1046F000176807F480470097009F3B4F57F82C70CE
:1047000027EA0E0E394FBC4208BF00272CD0384F85
:10471000BC4208BF012727D0364FBC4208BF022742
:1047200022D0354FBC4208BF03271DD0334FBC42B7
:1047300008BF042718D0324FBC4208BF052713D04A
:10474000304FBC4208BF06270ED02F4FBC4208BFD7
:10475000072709D02D4FBC4208BF082704D02C4F93
:10476000BC420CBF09270A2707FA00F040EA0E00F6
:104770001D4F47F82C008F686FEA080000EA070C0D
:104780006F68FF0248BF48EA0C0CC1F808C0CF6848
:1047900000EA070C6F68BF0248BF48EA0C0CC1F87A
:1047A0000CC04F6800EA070C6F68BF0348BF48EAB7
:1047B0000C0CC1F804C00F6800EA070C6868C0035D
:1047C00048BF48EA0C0CC1F800C0761C0F2E7FF6DB
:1047D00021AFBDE8F18F02B9090481617047000083
:1047E000003C0140443802400838014000000240CB
:1047F0000004024000080240000C02400010024089
:104800000014024000180240001C02400020024038
:104810000024024018B5014687B000221920FFF796
:1048200033FB1920154CFFF74CFB1548016841F08C
:1048300001010160006800F001000090009902A8E9
:1048400001A9FFF7D5FAFFF7C9FA40000D4B0E4951
:1048500040F2E732B0FBF3F02160401E60600021BF
:10486000E26020462161A16000F088F818B9204676
:1048700000F091F800E0012008B010BDD049002000
:104880004438024040420F00000001404018491CDB
:104890001CBFB1F1010100F8012DF9D170470000F2
:1048A0000CB430B583B00A4606A90291044600252F
:1048B0000194009502AB01A9084878441E30FBF72B
:1048C00083FC019A157000284EBF04460198041B12
:1048D000204603B030BC5DF80CFB00BF03C9FFFFEE
:1048E00080B50320FFF7C3FA0F20FFF793FFFEF711
:1048F000ADFF002002BD00007CB500F023F840F4BD
:10490000803000F01CF806466068C10306D4FFF74B
:1049100017F8801BA842F7D3032076BD206840F427
:10492000003000F00CF806466168880305D4FFF7F4
:1049300007F8801BA842F7D3EEE7002076BD206081
:10494000FEF7FEBF0848074C016840F2E93541F028
:1049500080510160006800F080500090009920684C
:104960007047000000700040403802400248416833
:1049700002788A18426070470C00002038B50400A5
:1049800001D1012032BD00F071F818B900F06AF8C9
:1049900000F08AF941E090F83D10012901D0012092
:1049A0007047022280F83D200168CB6843F0010384
:1049B000CB600168DFF88C00814218BFB1F1804FF5
:1049C00017D0DFF8842091421CBFDFF880008142BD
:1049D0000FD0DFF87C3099421CBFDFF8782091427D
:1049E00007D0DFF8740081421CBFDFF870309942B5
:1049F0000DD18A68DFF868000240062A18BFB2F5B8
:104A0000803F08D00A6842F001020A6003E00868AB
:104A100040F001000860002070470220211D6870EE
:104A2000206800F0D8F801202873A870E870287179
:104A30006871A871E87128726872A872E87268706B
:104A4000002032BD0000014000040040000800408A
:104A5000000C0040000401400040014000180040EC
:104A600007000100002120462970704704F13C0531
:104A70006878704710B50446206801698A0715D523
:104A8000C368990712D56FF00202012302612377F0
:104A9000806910F0030F204602D000F006F903E011
:104AA00000F004F900F094F80020207720680169F4
:104AB0004A0715D5C368590712D56FF004020223BF
:104AC00002612377806910F4407F204602D000F015
:104AD000ECF803E000F0EAF800F07AF80020207724
:104AE000206801690A0715D5C368190712D56FF048
:104AF0000802042302612377C06910F0030F2046E7
:104B000002D000F0D2F803E000F0D0F800F060F836
:104B10000020207720680169CA0615D5C368D90628
:104B200012D56FF01002082302612377C06910F4D8
:104B3000407F204602D000F0B8F803E000F0B6F85D
:104B400000F046F80020207720680169CA0708D5E0
:104B5000C368D90705D56FF0010202612046FFF74F
:104B60000BFD206801690A0608D5C368190605D53A
:104B70006FF080020261204600F099F82068016918
:104B8000CA0508D5C368190605D56FF4807202619D
:104B9000204600F08DF8206801694A0608D5C368F0
:104BA000590605D56FF040020261204600F081F8F9
:104BB000206801698A060AD5C368990607D56FF08F
:104BC000200202612046BDE8104000F073B810BD1D
:104BD000204600F070B8F0B5DFF8A0500668A84293
:104BE000DFF89C40DFF89C30DFF89C70DFF89CC059
:104BF00018BFB0F1804F07D0604518BFB84203D04E
:104C0000984218BFA0420DD14A6826F0700616439C
:104C1000A84218BFB0F1804F1AD060451CBFB842FF
:104C2000984215D0A0421CBFDFF8643098420FD0E4
:104C3000DFF8602090421CBFDFF85C70B84207D0FC
:104C4000164B98421FBF164A9042164FB84203D1E6
:104C5000CB6826F440761E434A6926F08006164348
:104C6000A84206608B68C3620E68866212BFA042CB
:104C70000969016301224261F0BD000000000140AA
:104C800000040140000C0040000800400004004007
:104C9000004001400044014000480140001800402D
:104CA000001C00400020004070477047704770476C
:104CB000704770477047704730B501688468421884
:104CC000416802EB5103C90703D54C4401E0491C7C
:104CD00005D19A420AD012F9011B12F8015B002992
:104CE00004F8015BF3D4491EF7D5F2E70C3030BD70
:104CF00010B5074979441831064C7C44163404E059
:104D00000A68081D114488470146A142F8D110BD28
:104D10002C000000480000004EF68851CEF2000141
:104D2000086840F470000860BFF34F8FBFF36F8FC7
:104D30004FF00070E1EE100A7047000053C4FFFF0F
:104D40000C4A000054000020000000006DFFFFFF2F
:104D500028020000820000000000002002480168D4
:104D600041F470010160704788ED00E00000000030
:104D700000000000010203040607080900F00DF816
:104D8000002801D0FFF7B4FFAFF300800020AFF39D
:104D90000080FFF717FB00F002F80120704700F0D9
:104DA00001B8000007463846FCF794FFFBE7000017
:104DB000FEE7FEE7FEE7FEE7FEE770470148FFF784
:104DC00059BE0000D04900200148804701480047F3
:104DD0005D4D0008D94D0008AFF30080FFF79CFF40
:104DE000FFF7CCFF0000000001020304686A6C7446
:104DF0007A4C0000FFF7FEBFFFF7FEBFFFF7FEBFD4
:104E0000FFF7FEBFFFF7FEBFFFF7FEBFFFF7FEBFD6
:104E1000FFF7FEBFFFF7FEBFFFF7FEBFFFF7FEBFC6
:104E2000FFF7FEBFFFF7FEBFFFF7FEBFFFF7FEBFB6
:104E3000FFF7FEBFFFF7FEBFFFF7FEBFFFF7FEBFA6
:104E4000FFF7FEBFFFF7FEBFFFF7FEBFFFF7FEBF96
:104E5000FFF7FEBFFFF7FEBFFFF7FEBFFFF7FEBF86
:104E6000FFF7FEBFFFF7FEBFFFF7FEBFFFF7FEBF76
:104E7000FFF7FEBFFFF7FEBFFFF7FEBFFFF7FEBF66
:104E8000FFF7FEBFFFF7FEBFFFF7FEBFFFF7FEBF56
:104E9000FFF7FEBFFFF7FEBFFFF7FEBFFFF7FEBF46
:104EA000FFF7FEBFFFF7FEBFFFF7FEBFFFF7FEBF36
:104EB000FFF7FEBFFFF7FEBFFFF7FEBFFFF7FEBF26
:104EC000FFF7FEBFFFF7FEBFFFF7FEBFFFF7FEBF16
:104ED000FFF7FEBFFFF7FEBFFFF7FEBFFFF7FEBF06
:104EE000FFF7FEBFFFF7FEBFFFF7FEBFFFF7FEBFF6
:104EF000FFF7FEBFFFF7FEBFFFF7FEBFFFF7FEBFE6
:104F0000FFF7FEBFFFF7FEBFFFF7FEBFFFF7FEBFD5
:104F1000FFF7FEBFFFF7FEBFFFF7FEBFFFF7FEBFC5
:104F2000FFF7FEBFFFF7FEBFFFF7FEBFFFF7FEBFB5
:104F3000FFF7FEBFFFF7FEBFFFF7FEBFFFF7FEBFA5
:104F4000FFF7FEBFFFF7FEBFFFF7FEBFFFF7FEBF95
:104F5000FFF7FEBFFFF7FEBFFFF7FEBFFFF7FEBF85
:104F6000FFF7FEBFFFF7FEBFFFF7FEBFFFF7FEBF75
:104F7000FFF7FEBFFFF7FEBFFC00FCAAFC0000012C
:104F8000F9000010FC001E24F4006E1300086E13DC
:104F900000086E1300086E1300086E1300086E13ED
:104FA00000086E130008F8FF0B5E1200086E130075
:094FB000086E130008FAFFFE0070
:0400000508004DD9C9
:00000001FF
